{
  "transactions": [
    {
      "hash": "0x5845dc07e5c68611afea263c3f3ec39eaffd2f4525b3e0d13f4fa5aface838f1",
      "transactionType": "CREATE",
      "contractName": "G50ERC20",
      "contractAddress": "0x5fbdb2315678afecb367f032d93f642f64180aa3",
      "function": null,
      "arguments": null,
      "transaction": {
        "from": "0xf39fd6e51aad88f6f4ce6ab8827279cfffb92266",
        "gas": "0x725b05",
        "value": "0x0",
        "input": "0x608060405234801561000f575f5ffd5b506040518060400160405280600381526020017f47353000000000000000000000000000000000000000000000000000000000008152506040518060400160405280600381526020017f4735300000000000000000000000000000000000000000000000000000000000815250816003908161008b919061037b565b50806004908161009b919061037b565b50505060016100bc6100b16100fb60201b60201c565b61012460201b60201c565b5f01819055506402540be400600681905550601460156006546100df9190610477565b6100e991906104e5565b60058190555043600781905550610515565b5f7f9b779b17422d0df92223018b32b4d1fa46e071723d6817e2486d003becc55f005f1b905090565b5f819050919050565b5f81519050919050565b7f4e487b71000000000000000000000000000000000000000000000000000000005f52604160045260245ffd5b7f4e487b71000000000000000000000000000000000000000000000000000000005f52602260045260245ffd5b5f60028204905060018216806101a857607f821691505b6020821081036101bb576101ba610164565b5b50919050565b5f819050815f5260205f209050919050565b5f6020601f8301049050919050565b5f82821b905092915050565b5f6008830261021d7fffffffffffffffffffffffffffffffffffffffffffffffffffffffffffffffff826101e2565b61022786836101e2565b95508019841693508086168417925050509392505050565b5f819050919050565b5f819050919050565b5f61026b6102666102618461023f565b610248565b61023f565b9050919050565b5f819050919050565b61028483610251565b61029861029082610272565b8484546101ee565b825550505050565b5f5f905090565b6102af6102a0565b6102ba81848461027b565b505050565b5f5b828110156102e0576102d55f8284016102a7565b6001810190506102c1565b505050565b601f8211156103335782821115610332576102ff816101c1565b610308836101d3565b610311856101d3565b602086101561031e575f90505b80830161032d828403826102bf565b505050505b5b505050565b5f82821c905092915050565b5f6103535f1984600802610338565b1980831691505092915050565b5f61036b8383610344565b9150826002028217905092915050565b6103848261012d565b67ffffffffffffffff81111561039d5761039c610137565b5b6103a78254610191565b6103b28282856102e5565b5f60209050601f8311600181146103e3575f84156103d1578287015190505b6103db8582610360565b865550610442565b601f1984166103f1866101c1565b5f5b82811015610418578489015182556001820191506020850194506020810190506103f3565b868310156104355784890151610431601f891682610344565b8355505b6001600288020188555050505b505050505050565b7f4e487b71000000000000000000000000000000000000000000000000000000005f52601160045260245ffd5b5f6104818261023f565b915061048c8361023f565b925082820261049a8161023f565b915082820484148315176104b1576104b061044a565b5b5092915050565b7f4e487b71000000000000000000000000000000000000000000000000000000005f52601260045260245ffd5b5f6104ef8261023f565b91506104fa8361023f565b92508261050a576105096104b8565b5b828204905092915050565b6117d1806105225f395ff3fe608060405260043610610101575f3560e01c806370a0823111610094578063a6f2ae3a11610063578063a6f2ae3a1461032e578063a9059cbb14610338578063c046371114610374578063dd62ed3e1461039e578063e4849b32146103da57610110565b806370a0823114610274578063753ed1bd146102b05780638620410b146102da57806395d89b411461030457610110565b80632f674ab9116100d05780632f674ab9146101e0578063313ce567146101f657806340695363146102205780634b7503341461024a57610110565b806306fdde0314610114578063095ea7b31461013e57806318160ddd1461017a57806323b872dd146101a457610110565b366101105761010e610402565b005b5f5ffd5b34801561011f575f5ffd5b506101286104f0565b6040516101359190611103565b60405180910390f35b348015610149575f5ffd5b50610164600480360381019061015f91906111b4565b610580565b604051610171919061120c565b60405180910390f35b348015610185575f5ffd5b5061018e6105a2565b60405161019b9190611234565b60405180910390f35b3480156101af575f5ffd5b506101ca60048036038101906101c5919061124d565b6105ab565b6040516101d7919061120c565b60405180910390f35b3480156101eb575f5ffd5b506101f46105d9565b005b348015610201575f5ffd5b5061020a61067f565b60405161021791906112b8565b60405180910390f35b34801561022b575f5ffd5b50610234610687565b6040516102419190611234565b60405180910390f35b348015610255575f5ffd5b5061025e61068d565b60405161026b9190611234565b60405180910390f35b34801561027f575f5ffd5b5061029a600480360381019061029591906112d1565b610696565b6040516102a79190611234565b60405180910390f35b3480156102bb575f5ffd5b506102c46106db565b6040516102d19190611234565b60405180910390f35b3480156102e5575f5ffd5b506102ee6106e1565b6040516102fb9190611234565b60405180910390f35b34801561030f575f5ffd5b506103186106ea565b6040516103259190611103565b60405180910390f35b610336610402565b005b348015610343575f5ffd5b5061035e600480360381019061035991906111b4565b61077a565b60405161036b919061120c565b60405180910390f35b34801561037f575f5ffd5b5061038861079c565b6040516103959190611234565b60405180910390f35b3480156103a9575f5ffd5b506103c460048036038101906103bf91906112fc565b6107a2565b6040516103d19190611234565b60405180910390f35b3480156103e5575f5ffd5b5061040060048036038101906103fb919061133a565b610824565b005b5f3411610444576040517f08c379a000000000000000000000000000000000000000000000000000000000815260040161043b906113af565b60405180910390fd5b5f60055411610488576040517f08c379a000000000000000000000000000000000000000000000000000000000815260040161047f90611417565b60405180910390fd5b5f60055434610497919061148f565b90505f81116104db576040517f08c379a00000000000000000000000000000000000000000000000000000000081526004016104d290611509565b60405180910390fd5b6104e53382610946565b6104ed6105d9565b50565b6060600380546104ff90611554565b80601f016020809104026020016040519081016040528092919081815260200182805461052b90611554565b80156105765780601f1061054d57610100808354040283529160200191610576565b820191905f5260205f20905b81548152906001019060200180831161055957829003601f168201915b5050505050905090565b5f5f61058a6109c5565b90506105978185856109cc565b600191505092915050565b5f600254905090565b5f5f6105b56109c5565b90506105c28582856109de565b6105cd858585610a71565b60019150509392505050565b600a6007546105e89190611584565b431061067d575f6105f76105a2565b90505f81111561063557804761060d919061148f565b6006819055506014601560065461062491906115b7565b61062e919061148f565b6005819055505b436007819055507ff08a3b46f5df3430999903a65464921cb8ad37ea42c9fcced53d74978c180f5160065460055443604051610673939291906115f8565b60405180910390a1505b565b5f6008905090565b60065481565b5f600654905090565b5f5f5f8373ffffffffffffffffffffffffffffffffffffffff1673ffffffffffffffffffffffffffffffffffffffff1681526020019081526020015f20549050919050565b60055481565b5f600554905090565b6060600480546106f990611554565b80601f016020809104026020016040519081016040528092919081815260200182805461072590611554565b80156107705780601f1061074757610100808354040283529160200191610770565b820191905f5260205f20905b81548152906001019060200180831161075357829003601f168201915b5050505050905090565b5f5f6107846109c5565b9050610791818585610a71565b600191505092915050565b60075481565b5f60015f8473ffffffffffffffffffffffffffffffffffffffff1673ffffffffffffffffffffffffffffffffffffffff1681526020019081526020015f205f8373ffffffffffffffffffffffffffffffffffffffff1673ffffffffffffffffffffffffffffffffffffffff1681526020019081526020015f2054905092915050565b61082c610b61565b5f811161086e576040517f08c379a000000000000000000000000000000000000000000000000000000000815260040161086590611677565b60405180910390fd5b6108766105d9565b6108803382610b83565b5f6006548261088f91906115b7565b90505f3373ffffffffffffffffffffffffffffffffffffffff16826040516108b6906116c2565b5f6040518083038185875af1925050503d805f81146108f0576040519150601f19603f3d011682016040523d82523d5f602084013e6108f5565b606091505b5050905080610939576040517f08c379a000000000000000000000000000000000000000000000000000000000815260040161093090611720565b60405180910390fd5b5050610943610c02565b50565b5f73ffffffffffffffffffffffffffffffffffffffff168273ffffffffffffffffffffffffffffffffffffffff16036109b6575f6040517fec442f050000000000000000000000000000000000000000000000000000000081526004016109ad919061174d565b60405180910390fd5b6109c15f8383610c1c565b5050565b5f33905090565b6109d98383836001610e35565b505050565b5f6109e984846107a2565b90507fffffffffffffffffffffffffffffffffffffffffffffffffffffffffffffffff811015610a6b5781811015610a5c578281836040517ffb8f41b2000000000000000000000000000000000000000000000000000000008152600401610a5393929190611766565b60405180910390fd5b610a6a84848484035f610e35565b5b50505050565b5f73ffffffffffffffffffffffffffffffffffffffff168373ffffffffffffffffffffffffffffffffffffffff1603610ae1575f6040517f96c6fd1e000000000000000000000000000000000000000000000000000000008152600401610ad8919061174d565b60405180910390fd5b5f73ffffffffffffffffffffffffffffffffffffffff168273ffffffffffffffffffffffffffffffffffffffff1603610b51575f6040517fec442f05000000000000000000000000000000000000000000000000000000008152600401610b48919061174d565b60405180910390fd5b610b5c838383610c1c565b505050565b610b69611004565b6002610b7b610b76611045565b61106e565b5f0181905550565b5f73ffffffffffffffffffffffffffffffffffffffff168273ffffffffffffffffffffffffffffffffffffffff1603610bf3575f6040517f96c6fd1e000000000000000000000000000000000000000000000000000000008152600401610bea919061174d565b60405180910390fd5b610bfe825f83610c1c565b5050565b6001610c14610c0f611045565b61106e565b5f0181905550565b5f73ffffffffffffffffffffffffffffffffffffffff168373ffffffffffffffffffffffffffffffffffffffff1603610c6c578060025f828254610c609190611584565b92505081905550610d3a565b5f5f5f8573ffffffffffffffffffffffffffffffffffffffff1673ffffffffffffffffffffffffffffffffffffffff1681526020019081526020015f2054905081811015610cf5578381836040517fe450d38c000000000000000000000000000000000000000000000000000000008152600401610cec93929190611766565b60405180910390fd5b8181035f5f8673ffffffffffffffffffffffffffffffffffffffff1673ffffffffffffffffffffffffffffffffffffffff1681526020019081526020015f2081905550505b5f73ffffffffffffffffffffffffffffffffffffffff168273ffffffffffffffffffffffffffffffffffffffff1603610d81578060025f8282540392505081905550610dcb565b805f5f8473ffffffffffffffffffffffffffffffffffffffff1673ffffffffffffffffffffffffffffffffffffffff1681526020019081526020015f205f82825401925050819055505b8173ffffffffffffffffffffffffffffffffffffffff168373ffffffffffffffffffffffffffffffffffffffff167fddf252ad1be2c89b69c2b068fc378daa952ba7f163c4a11628f55a4df523b3ef83604051610e289190611234565b60405180910390a3505050565b5f73ffffffffffffffffffffffffffffffffffffffff168473ffffffffffffffffffffffffffffffffffffffff1603610ea5575f6040517fe602df05000000000000000000000000000000000000000000000000000000008152600401610e9c919061174d565b60405180910390fd5b5f73ffffffffffffffffffffffffffffffffffffffff168373ffffffffffffffffffffffffffffffffffffffff1603610f15575f6040517f94280d62000000000000000000000000000000000000000000000000000000008152600401610f0c919061174d565b60405180910390fd5b8160015f8673ffffffffffffffffffffffffffffffffffffffff1673ffffffffffffffffffffffffffffffffffffffff1681526020019081526020015f205f8573ffffffffffffffffffffffffffffffffffffffff1673ffffffffffffffffffffffffffffffffffffffff1681526020019081526020015f20819055508015610ffe578273ffffffffffffffffffffffffffffffffffffffff168473ffffffffffffffffffffffffffffffffffffffff167f8c5be1e5ebec7d5bd14f71427d1e84f3dd0314c0f7b2291e5b200ac8c7c3b92584604051610ff59190611234565b60405180910390a35b50505050565b61100c611077565b15611043576040517f3ee5aeb500000000000000000000000000000000000000000000000000000000815260040160405180910390fd5b565b5f7f9b779b17422d0df92223018b32b4d1fa46e071723d6817e2486d003becc55f005f1b905090565b5f819050919050565b5f600261108a611085611045565b61106e565b5f015414905090565b5f81519050919050565b5f82825260208201905092915050565b8281835e5f83830152505050565b5f601f19601f8301169050919050565b5f6110d582611093565b6110df818561109d565b93506110ef8185602086016110ad565b6110f8816110bb565b840191505092915050565b5f6020820190508181035f83015261111b81846110cb565b905092915050565b5f5ffd5b5f73ffffffffffffffffffffffffffffffffffffffff82169050919050565b5f61115082611127565b9050919050565b61116081611146565b811461116a575f5ffd5b50565b5f8135905061117b81611157565b92915050565b5f819050919050565b61119381611181565b811461119d575f5ffd5b50565b5f813590506111ae8161118a565b92915050565b5f5f604083850312156111ca576111c9611123565b5b5f6111d78582860161116d565b92505060206111e8858286016111a0565b9150509250929050565b5f8115159050919050565b611206816111f2565b82525050565b5f60208201905061121f5f8301846111fd565b92915050565b61122e81611181565b82525050565b5f6020820190506112475f830184611225565b92915050565b5f5f5f6060848603121561126457611263611123565b5b5f6112718682870161116d565b93505060206112828682870161116d565b9250506040611293868287016111a0565b9150509250925092565b5f60ff82169050919050565b6112b28161129d565b82525050565b5f6020820190506112cb5f8301846112a9565b92915050565b5f602082840312156112e6576112e5611123565b5b5f6112f38482850161116d565b91505092915050565b5f5f6040838503121561131257611311611123565b5b5f61131f8582860161116d565b92505060206113308582860161116d565b9150509250929050565b5f6020828403121561134f5761134e611123565b5b5f61135c848285016111a0565b91505092915050565b7f4735303a206d7573742073656e642045544800000000000000000000000000005f82015250565b5f61139960128361109d565b91506113a482611365565b602082019050919050565b5f6020820190508181035f8301526113c68161138d565b9050919050565b7f4735303a206365696c696e67206e6f7420696e697469616c69736564000000005f82015250565b5f611401601c8361109d565b915061140c826113cd565b602082019050919050565b5f6020820190508181035f83015261142e816113f5565b9050919050565b7f4e487b71000000000000000000000000000000000000000000000000000000005f52601260045260245ffd5b7f4e487b71000000000000000000000000000000000000000000000000000000005f52601160045260245ffd5b5f61149982611181565b91506114a483611181565b9250826114b4576114b3611435565b5b828204905092915050565b7f4735303a2045544820616d6f756e7420746f6f20736d616c6c000000000000005f82015250565b5f6114f360198361109d565b91506114fe826114bf565b602082019050919050565b5f6020820190508181035f830152611520816114e7565b9050919050565b7f4e487b71000000000000000000000000000000000000000000000000000000005f52602260045260245ffd5b5f600282049050600182168061156b57607f821691505b60208210810361157e5761157d611527565b5b50919050565b5f61158e82611181565b915061159983611181565b92508282019050808211156115b1576115b0611462565b5b92915050565b5f6115c182611181565b91506115cc83611181565b92508282026115da81611181565b915082820484148315176115f1576115f0611462565b5b5092915050565b5f60608201905061160b5f830186611225565b6116186020830185611225565b6116256040830184611225565b949350505050565b7f4735303a20616d6f756e74206d757374206265203e20300000000000000000005f82015250565b5f61166160178361109d565b915061166c8261162d565b602082019050919050565b5f6020820190508181035f83015261168e81611655565b9050919050565b5f81905092915050565b50565b5f6116ad5f83611695565b91506116b88261169f565b5f82019050919050565b5f6116cc826116a2565b9150819050919050565b7f4735303a20455448207472616e73666572206661696c656400000000000000005f82015250565b5f61170a60188361109d565b9150611715826116d6565b602082019050919050565b5f6020820190508181035f830152611737816116fe565b9050919050565b61174781611146565b82525050565b5f6020820190506117605f83018461173e565b92915050565b5f6060820190506117795f83018661173e565b6117866020830185611225565b6117936040830184611225565b94935050505056fea264697066735822122053de5bb06d05fe29dc204447d8cd82696d4f5106ccb5cf2db4525b5d01024ec664736f6c63430008210033",
        "nonce": "0x0",
        "chainId": "0x7a69"
      },
      "additionalContracts": [],
      "isFixedGasLimit": false
    },
    {
      "hash": "0x1547a0fd1ffa0dab95bb9262bbfbec1d3139859aaa3172c60709e3620f902f76",
      "transactionType": "CALL",
      "contractName": "G50ERC20",
      "contractAddress": "0x5fbdb2315678afecb367f032d93f642f64180aa3",
      "function": "buy()",
      "arguments": [],
      "transaction": {
        "from": "0xf39fd6e51aad88f6f4ce6ab8827279cfffb92266",
        "to": "0x5fbdb2315678afecb367f032d93f642f64180aa3",
        "gas": "0x5e3da",
        "value": "0x29a2241af62c0000",
        "input": "0xa6f2ae3a",
        "nonce": "0x1",
        "chainId": "0x7a69"
      },
      "additionalContracts": [],
      "isFixedGasLimit": false
    },
    {
      "hash": "0x1d7347151fa2a8c2cd79a37a8eaa0cba8a3c29f29edd3c6e567631f582d8e430",
      "transactionType": "CALL",
      "contractName": "G50ERC20",
      "contractAddress": "0x5fbdb2315678afecb367f032d93f642f64180aa3",
      "function": "buy()",
      "arguments": [],
      "transaction": {
        "from": "0x70997970c51812dc3a010c7d01b50e0d17dc79c8",
        "to": "0x5fbdb2315678afecb367f032d93f642f64180aa3",
        "gas": "0x4c4d2",
        "value": "0x1bc16d674ec80000",
        "input": "0xa6f2ae3a",
        "nonce": "0x0",
        "chainId": "0x7a69"
      },
      "additionalContracts": [],
      "isFixedGasLimit": false
    },
    {
      "hash": "0xe96874699d01ade1ea80a267da509a02e2fde913976ffb39d9dbea0fd22d5c14",
      "transactionType": "CALL",
      "contractName": "G50ERC20",
      "contractAddress": "0x5fbdb2315678afecb367f032d93f642f64180aa3",
      "function": "buy()",
      "arguments": [],
      "transaction": {
        "from": "0x3c44cdddb6a900fa2b585dd299e03d12fa4293bc",
        "to": "0x5fbdb2315678afecb367f032d93f642f64180aa3",
        "gas": "0x4c4d2",
        "value": "0xde0b6b3a7640000",
        "input": "0xa6f2ae3a",
        "nonce": "0x0",
        "chainId": "0x7a69"
      },
      "additionalContracts": [],
      "isFixedGasLimit": false
    },
    {
      "hash": "0xd134514f1dfc2d716f9741d02c3fc2f2988f397e8085954d32c38b6706205087",
      "transactionType": "CALL",
      "contractName": "G50ERC20",
      "contractAddress": "0x5fbdb2315678afecb367f032d93f642f64180aa3",
      "function": "approve(address,uint256)",
      "arguments": [
        "0x70997970C51812dc3A010C7d01b50e0d17dc79C8",
        "0"
      ],
      "transaction": {
        "from": "0xf39fd6e51aad88f6f4ce6ab8827279cfffb92266",
        "to": "0x5fbdb2315678afecb367f032d93f642f64180aa3",
        "gas": "0x250cb",
        "value": "0x0",
        "input": "0x095ea7b300000000000000000000000070997970c51812dc3a010c7d01b50e0d17dc79c80000000000000000000000000000000000000000000000000000000000000000",
        "nonce": "0x2",
        "chainId": "0x7a69"
      },
      "additionalContracts": [],
      "isFixedGasLimit": false
    },
    {
      "hash": "0x267088221f379f835d9848a725dce3a196bf3d7a2415f9795b880fea1ebae7fc",
      "transactionType": "CALL",
      "contractName": "G50ERC20",
      "contractAddress": "0x5fbdb2315678afecb367f032d93f642f64180aa3",
      "function": "approve(address,uint256)",
      "arguments": [
        "0x70997970C51812dc3A010C7d01b50e0d17dc79C8",
        "0"
      ],
      "transaction": {
        "from": "0xf39fd6e51aad88f6f4ce6ab8827279cfffb92266",
        "to": "0x5fbdb2315678afecb367f032d93f642f64180aa3",
        "gas": "0x250cb",
        "value": "0x0",
        "input": "0x095ea7b300000000000000000000000070997970c51812dc3a010c7d01b50e0d17dc79c80000000000000000000000000000000000000000000000000000000000000000",
        "nonce": "0x3",
        "chainId": "0x7a69"
      },
      "additionalContracts": [],
      "isFixedGasLimit": false
    },
    {
      "hash": "0x9aa172161e53ea54bd5f6377db4d4d02bdb53923dd54bc710ad46fc8649db535",
      "transactionType": "CALL",
      "contractName": "G50ERC20",
      "contractAddress": "0x5fbdb2315678afecb367f032d93f642f64180aa3",
      "function": "approve(address,uint256)",
      "arguments": [
        "0x70997970C51812dc3A010C7d01b50e0d17dc79C8",
        "0"
      ],
      "transaction": {
        "from": "0xf39fd6e51aad88f6f4ce6ab8827279cfffb92266",
        "to": "0x5fbdb2315678afecb367f032d93f642f64180aa3",
        "gas": "0x250cb",
        "value": "0x0",
        "input": "0x095ea7b300000000000000000000000070997970c51812dc3a010c7d01b50e0d17dc79c80000000000000000000000000000000000000000000000000000000000000000",
        "nonce": "0x4",
        "chainId": "0x7a69"
      },
      "additionalContracts": [],
      "isFixedGasLimit": false
    },
    {
      "hash": "0xb05e5725921710275c04f18b0f8ab22e4432f37b06ba45fd05c2929c52178847",
      "transactionType": "CALL",
      "contractName": "G50ERC20",
      "contractAddress": "0x5fbdb2315678afecb367f032d93f642f64180aa3",
      "function": "approve(address,uint256)",
      "arguments": [
        "0x70997970C51812dc3A010C7d01b50e0d17dc79C8",
        "0"
      ],
      "transaction": {
        "from": "0xf39fd6e51aad88f6f4ce6ab8827279cfffb92266",
        "to": "0x5fbdb2315678afecb367f032d93f642f64180aa3",
        "gas": "0x250cb",
        "value": "0x0",
        "input": "0x095ea7b300000000000000000000000070997970c51812dc3a010c7d01b50e0d17dc79c80000000000000000000000000000000000000000000000000000000000000000",
        "nonce": "0x5",
        "chainId": "0x7a69"
      },
      "additionalContracts": [],
      "isFixedGasLimit": false
    },
    {
      "hash": "0xf2da851e24938f947104941532853f513ca14376e3dff6c3f42f3d9d9d7a255a",
      "transactionType": "CALL",
      "contractName": "G50ERC20",
      "contractAddress": "0x5fbdb2315678afecb367f032d93f642f64180aa3",
      "function": "approve(address,uint256)",
      "arguments": [
        "0x70997970C51812dc3A010C7d01b50e0d17dc79C8",
        "0"
      ],
      "transaction": {
        "from": "0xf39fd6e51aad88f6f4ce6ab8827279cfffb92266",
        "to": "0x5fbdb2315678afecb367f032d93f642f64180aa3",
        "gas": "0x250cb",
        "value": "0x0",
        "input": "0x095ea7b300000000000000000000000070997970c51812dc3a010c7d01b50e0d17dc79c80000000000000000000000000000000000000000000000000000000000000000",
        "nonce": "0x6",
        "chainId": "0x7a69"
      },
      "additionalContracts": [],
      "isFixedGasLimit": false
    },
    {
      "hash": "0xa21e2a4ed7ce9606c425c3cada069ff9898735077432c27a69bfe29b9fbbd372",
      "transactionType": "CALL",
      "contractName": "G50ERC20",
      "contractAddress": "0x5fbdb2315678afecb367f032d93f642f64180aa3",
      "function": "approve(address,uint256)",
      "arguments": [
        "0x70997970C51812dc3A010C7d01b50e0d17dc79C8",
        "0"
      ],
      "transaction": {
        "from": "0xf39fd6e51aad88f6f4ce6ab8827279cfffb92266",
        "to": "0x5fbdb2315678afecb367f032d93f642f64180aa3",
        "gas": "0x250cb",
        "value": "0x0",
        "input": "0x095ea7b300000000000000000000000070997970c51812dc3a010c7d01b50e0d17dc79c80000000000000000000000000000000000000000000000000000000000000000",
        "nonce": "0x7",
        "chainId": "0x7a69"
      },
      "additionalContracts": [],
      "isFixedGasLimit": false
    },
    {
      "hash": "0x861aa5905d52e02687cfd6bc408e6561bd89c19c429f36dd47a428a6a589df64",
      "transactionType": "CALL",
      "contractName": "G50ERC20",
      "contractAddress": "0x5fbdb2315678afecb367f032d93f642f64180aa3",
      "function": "approve(address,uint256)",
      "arguments": [
        "0x70997970C51812dc3A010C7d01b50e0d17dc79C8",
        "0"
      ],
      "transaction": {
        "from": "0xf39fd6e51aad88f6f4ce6ab8827279cfffb92266",
        "to": "0x5fbdb2315678afecb367f032d93f642f64180aa3",
        "gas": "0x250cb",
        "value": "0x0",
        "input": "0x095ea7b300000000000000000000000070997970c51812dc3a010c7d01b50e0d17dc79c80000000000000000000000000000000000000000000000000000000000000000",
        "nonce": "0x8",
        "chainId": "0x7a69"
      },
      "additionalContracts": [],
      "isFixedGasLimit": false
    },
    {
      "hash": "0x20ee8cc347ece518d307ab26a342291c00c70a8f00f67ecbd7a3f1bee6107408",
      "transactionType": "CALL",
      "contractName": "G50ERC20",
      "contractAddress": "0x5fbdb2315678afecb367f032d93f642f64180aa3",
      "function": "approve(address,uint256)",
      "arguments": [
        "0x70997970C51812dc3A010C7d01b50e0d17dc79C8",
        "0"
      ],
      "transaction": {
        "from": "0xf39fd6e51aad88f6f4ce6ab8827279cfffb92266",
        "to": "0x5fbdb2315678afecb367f032d93f642f64180aa3",
        "gas": "0x250cb",
        "value": "0x0",
        "input": "0x095ea7b300000000000000000000000070997970c51812dc3a010c7d01b50e0d17dc79c80000000000000000000000000000000000000000000000000000000000000000",
        "nonce": "0x9",
        "chainId": "0x7a69"
      },
      "additionalContracts": [],
      "isFixedGasLimit": false
    },
    {
      "hash": "0x3432d8ff1a55743852259c4874874907252d01a9f0f017760b00e6cb515acfe1",
      "transactionType": "CALL",
      "contractName": "G50ERC20",
      "contractAddress": "0x5fbdb2315678afecb367f032d93f642f64180aa3",
      "function": "approve(address,uint256)",
      "arguments": [
        "0x70997970C51812dc3A010C7d01b50e0d17dc79C8",
        "0"
      ],
      "transaction": {
        "from": "0xf39fd6e51aad88f6f4ce6ab8827279cfffb92266",
        "to": "0x5fbdb2315678afecb367f032d93f642f64180aa3",
        "gas": "0x250cb",
        "value": "0x0",
        "input": "0x095ea7b300000000000000000000000070997970c51812dc3a010c7d01b50e0d17dc79c80000000000000000000000000000000000000000000000000000000000000000",
        "nonce": "0xa",
        "chainId": "0x7a69"
      },
      "additionalContracts": [],
      "isFixedGasLimit": false
    },
    {
      "hash": "0x3b7778f8bc765548c0ce394f1ec60dce0c3be24c48f9b011cc69592c45bff58b",
      "transactionType": "CALL",
      "contractName": "G50ERC20",
      "contractAddress": "0x5fbdb2315678afecb367f032d93f642f64180aa3",
      "function": "approve(address,uint256)",
      "arguments": [
        "0x70997970C51812dc3A010C7d01b50e0d17dc79C8",
        "0"
      ],
      "transaction": {
        "from": "0xf39fd6e51aad88f6f4ce6ab8827279cfffb92266",
        "to": "0x5fbdb2315678afecb367f032d93f642f64180aa3",
        "gas": "0x250cb",
        "value": "0x0",
        "input": "0x095ea7b300000000000000000000000070997970c51812dc3a010c7d01b50e0d17dc79c80000000000000000000000000000000000000000000000000000000000000000",
        "nonce": "0xb",
        "chainId": "0x7a69"
      },
      "additionalContracts": [],
      "isFixedGasLimit": false
    },
    {
      "hash": "0x46563a3eb77e6e2697ad885472f0999adf6bbcd69fb0d562a7ef9793738c121f",
      "transactionType": "CALL",
      "contractName": "G50ERC20",
      "contractAddress": "0x5fbdb2315678afecb367f032d93f642f64180aa3",
      "function": "maybeUpdate()",
      "arguments": [],
      "transaction": {
        "from": "0xf39fd6e51aad88f6f4ce6ab8827279cfffb92266",
        "to": "0x5fbdb2315678afecb367f032d93f642f64180aa3",
        "gas": "0x2052b",
        "value": "0x0",
        "input": "0x2f674ab9",
        "nonce": "0xc",
        "chainId": "0x7a69"
      },
      "additionalContracts": [],
      "isFixedGasLimit": false
    },
    {
      "hash": "0x2c680a42beb42bbfe97af50e9d53794ad175b4e98ee7cc612af958f406fdd2a0",
      "transactionType": "CALL",
      "contractName": "G50ERC20",
      "contractAddress": "0x5fbdb2315678afecb367f032d93f642f64180aa3",
      "function": "sell(uint256)",
      "arguments": [
        "95238095"
      ],
      "transaction": {
        "from": "0x70997970c51812dc3a010c7d01b50e0d17dc79c8",
        "to": "0x5fbdb2315678afecb367f032d93f642f64180aa3",
        "gas": "0x42dd8",
        "value": "0x0",
        "input": "0xe4849b320000000000000000000000000000000000000000000000000000000005ad37cf",
        "nonce": "0x1",
        "chainId": "0x7a69"
      },
      "additionalContracts": [],
      "isFixedGasLimit": false
    },
    {
      "hash": "0x9e0a8f1e648241ccc3df6c8f6bf80e378721a9037e8693acc87626f5e8271469",
      "transactionType": "CALL",
      "contractName": "G50ERC20",
      "contractAddress": "0x5fbdb2315678afecb367f032d93f642f64180aa3",
      "function": "buy()",
      "arguments": [],
      "transaction": {
        "from": "0x90f79bf6eb2c4f870365e785982e1f101e93b906",
        "to": "0x5fbdb2315678afecb367f032d93f642f64180aa3",
        "gas": "0x4c4d2",
        "value": "0x14d1120d7b160000",
        "input": "0xa6f2ae3a",
        "nonce": "0x0",
        "chainId": "0x7a69"
      },
      "additionalContracts": [],
      "isFixedGasLimit": false
    },
    {
      "hash": "0xf590499ded40eef6faeb609f8eaf187d2b6adfbe5d10bbbfbbe0d45086e3fd9f",
      "transactionType": "CALL",
      "contractName": "G50ERC20",
      "contractAddress": "0x5fbdb2315678afecb367f032d93f642f64180aa3",
      "function": "buy()",
      "arguments": [],
      "transaction": {
        "from": "0x3c44cdddb6a900fa2b585dd299e03d12fa4293bc",
        "to": "0x5fbdb2315678afecb367f032d93f642f64180aa3",
        "gas": "0x31e20",
        "value": "0x6f05b59d3b20000",
        "input": "0xa6f2ae3a",
        "nonce": "0x1",
        "chainId": "0x7a69"
      },
      "additionalContracts": [],
      "isFixedGasLimit": false
    },
    {
      "hash": "0xd62657487abc507779d301e4d48705a5773958448177ef4c16a7e0d4de91c0f8",
      "transactionType": "CALL",
      "contractName": "G50ERC20",
      "contractAddress": "0x5fbdb2315678afecb367f032d93f642f64180aa3",
      "function": "approve(address,uint256)",
      "arguments": [
        "0x70997970C51812dc3A010C7d01b50e0d17dc79C8",
        "0"
      ],
      "transaction": {
        "from": "0xf39fd6e51aad88f6f4ce6ab8827279cfffb92266",
        "to": "0x5fbdb2315678afecb367f032d93f642f64180aa3",
        "gas": "0x250cb",
        "value": "0x0",
        "input": "0x095ea7b300000000000000000000000070997970c51812dc3a010c7d01b50e0d17dc79c80000000000000000000000000000000000000000000000000000000000000000",
        "nonce": "0xd",
        "chainId": "0x7a69"
      },
      "additionalContracts": [],
      "isFixedGasLimit": false
    },
    {
      "hash": "0x68565f49c73d484414f3a60566347d2a1e005f8c69ab910b322c7cb270accafb",
      "transactionType": "CALL",
      "contractName": "G50ERC20",
      "contractAddress": "0x5fbdb2315678afecb367f032d93f642f64180aa3",
      "function": "approve(address,uint256)",
      "arguments": [
        "0x70997970C51812dc3A010C7d01b50e0d17dc79C8",
        "0"
      ],
      "transaction": {
        "from": "0xf39fd6e51aad88f6f4ce6ab8827279cfffb92266",
        "to": "0x5fbdb2315678afecb367f032d93f642f64180aa3",
        "gas": "0x250cb",
        "value": "0x0",
        "input": "0x095ea7b300000000000000000000000070997970c51812dc3a010c7d01b50e0d17dc79c80000000000000000000000000000000000000000000000000000000000000000",
        "nonce": "0xe",
        "chainId": "0x7a69"
      },
      "additionalContracts": [],
      "isFixedGasLimit": false
    },
    {
      "hash": "0x283f062b749e48429c4b94f8588ef9d7c1c66a3b72521d4d20329abf86aca3ae",
      "transactionType": "CALL",
      "contractName": "G50ERC20",
      "contractAddress": "0x5fbdb2315678afecb367f032d93f642f64180aa3",
      "function": "approve(address,uint256)",
      "arguments": [
        "0x70997970C51812dc3A010C7d01b50e0d17dc79C8",
        "0"
      ],
      "transaction": {
        "from": "0xf39fd6e51aad88f6f4ce6ab8827279cfffb92266",
        "to": "0x5fbdb2315678afecb367f032d93f642f64180aa3",
        "gas": "0x250cb",
        "value": "0x0",
        "input": "0x095ea7b300000000000000000000000070997970c51812dc3a010c7d01b50e0d17dc79c80000000000000000000000000000000000000000000000000000000000000000",
        "nonce": "0xf",
        "chainId": "0x7a69"
      },
      "additionalContracts": [],
      "isFixedGasLimit": false
    },
    {
      "hash": "0x11ddd308dd3648d6adf26b988185926c943cd152276fb49cc08fb515978f5131",
      "transactionType": "CALL",
      "contractName": "G50ERC20",
      "contractAddress": "0x5fbdb2315678afecb367f032d93f642f64180aa3",
      "function": "approve(address,uint256)",
      "arguments": [
        "0x70997970C51812dc3A010C7d01b50e0d17dc79C8",
        "0"
      ],
      "transaction": {
        "from": "0xf39fd6e51aad88f6f4ce6ab8827279cfffb92266",
        "to": "0x5fbdb2315678afecb367f032d93f642f64180aa3",
        "gas": "0x250cb",
        "value": "0x0",
        "input": "0x095ea7b300000000000000000000000070997970c51812dc3a010c7d01b50e0d17dc79c80000000000000000000000000000000000000000000000000000000000000000",
        "nonce": "0x10",
        "chainId": "0x7a69"
      },
      "additionalContracts": [],
      "isFixedGasLimit": false
    },
    {
      "hash": "0xf6ba9c9e238a383dfbbaeb86292d7cde08d88c8ce51e68a4e02f6b867ad45c1d",
      "transactionType": "CALL",
      "contractName": "G50ERC20",
      "contractAddress": "0x5fbdb2315678afecb367f032d93f642f64180aa3",
      "function": "approve(address,uint256)",
      "arguments": [
        "0x70997970C51812dc3A010C7d01b50e0d17dc79C8",
        "0"
      ],
      "transaction": {
        "from": "0xf39fd6e51aad88f6f4ce6ab8827279cfffb92266",
        "to": "0x5fbdb2315678afecb367f032d93f642f64180aa3",
        "gas": "0x250cb",
        "value": "0x0",
        "input": "0x095ea7b300000000000000000000000070997970c51812dc3a010c7d01b50e0d17dc79c80000000000000000000000000000000000000000000000000000000000000000",
        "nonce": "0x11",
        "chainId": "0x7a69"
      },
      "additionalContracts": [],
      "isFixedGasLimit": false
    },
    {
      "hash": "0x0c2679479e277ee822d88da74b84e6f49e2f6d1a27e142aa521689f4e60e7777",
      "transactionType": "CALL",
      "contractName": "G50ERC20",
      "contractAddress": "0x5fbdb2315678afecb367f032d93f642f64180aa3",
      "function": "approve(address,uint256)",
      "arguments": [
        "0x70997970C51812dc3A010C7d01b50e0d17dc79C8",
        "0"
      ],
      "transaction": {
        "from": "0xf39fd6e51aad88f6f4ce6ab8827279cfffb92266",
        "to": "0x5fbdb2315678afecb367f032d93f642f64180aa3",
        "gas": "0x250cb",
        "value": "0x0",
        "input": "0x095ea7b300000000000000000000000070997970c51812dc3a010c7d01b50e0d17dc79c80000000000000000000000000000000000000000000000000000000000000000",
        "nonce": "0x12",
        "chainId": "0x7a69"
      },
      "additionalContracts": [],
      "isFixedGasLimit": false
    },
    {
      "hash": "0xa4c36655b912b35bd27a639147468e85adcc1d835f0ed4083f0c7244751f3713",
      "transactionType": "CALL",
      "contractName": "G50ERC20",
      "contractAddress": "0x5fbdb2315678afecb367f032d93f642f64180aa3",
      "function": "approve(address,uint256)",
      "arguments": [
        "0x70997970C51812dc3A010C7d01b50e0d17dc79C8",
        "0"
      ],
      "transaction": {
        "from": "0xf39fd6e51aad88f6f4ce6ab8827279cfffb92266",
        "to": "0x5fbdb2315678afecb367f032d93f642f64180aa3",
        "gas": "0x250cb",
        "value": "0x0",
        "input": "0x095ea7b300000000000000000000000070997970c51812dc3a010c7d01b50e0d17dc79c80000000000000000000000000000000000000000000000000000000000000000",
        "nonce": "0x13",
        "chainId": "0x7a69"
      },
      "additionalContracts": [],
      "isFixedGasLimit": false
    },
    {
      "hash": "0xb9a1975221228eaac837403c2bc103ff6c573f54d73742e52e44a826478529b6",
      "transactionType": "CALL",
      "contractName": "G50ERC20",
      "contractAddress": "0x5fbdb2315678afecb367f032d93f642f64180aa3",
      "function": "approve(address,uint256)",
      "arguments": [
        "0x70997970C51812dc3A010C7d01b50e0d17dc79C8",
        "0"
      ],
      "transaction": {
        "from": "0xf39fd6e51aad88f6f4ce6ab8827279cfffb92266",
        "to": "0x5fbdb2315678afecb367f032d93f642f64180aa3",
        "gas": "0x250cb",
        "value": "0x0",
        "input": "0x095ea7b300000000000000000000000070997970c51812dc3a010c7d01b50e0d17dc79c80000000000000000000000000000000000000000000000000000000000000000",
        "nonce": "0x14",
        "chainId": "0x7a69"
      },
      "additionalContracts": [],
      "isFixedGasLimit": false
    },
    {
      "hash": "0x1115bd22eb9d7071ef32acff364ee976b18878dee261e22130e8491458467b9a",
      "transactionType": "CALL",
      "contractName": "G50ERC20",
      "contractAddress": "0x5fbdb2315678afecb367f032d93f642f64180aa3",
      "function": "approve(address,uint256)",
      "arguments": [
        "0x70997970C51812dc3A010C7d01b50e0d17dc79C8",
        "0"
      ],
      "transaction": {
        "from": "0xf39fd6e51aad88f6f4ce6ab8827279cfffb92266",
        "to": "0x5fbdb2315678afecb367f032d93f642f64180aa3",
        "gas": "0x250cb",
        "value": "0x0",
        "input": "0x095ea7b300000000000000000000000070997970c51812dc3a010c7d01b50e0d17dc79c80000000000000000000000000000000000000000000000000000000000000000",
        "nonce": "0x15",
        "chainId": "0x7a69"
      },
      "additionalContracts": [],
      "isFixedGasLimit": false
    },
    {
      "hash": "0x77e2d787f146305e3b9cf8b6013cbe7450bb4a57018bf4821c7221641502eb69",
      "transactionType": "CALL",
      "contractName": "G50ERC20",
      "contractAddress": "0x5fbdb2315678afecb367f032d93f642f64180aa3",
      "function": "approve(address,uint256)",
      "arguments": [
        "0x70997970C51812dc3A010C7d01b50e0d17dc79C8",
        "0"
      ],
      "transaction": {
        "from": "0xf39fd6e51aad88f6f4ce6ab8827279cfffb92266",
        "to": "0x5fbdb2315678afecb367f032d93f642f64180aa3",
        "gas": "0x250cb",
        "value": "0x0",
        "input": "0x095ea7b300000000000000000000000070997970c51812dc3a010c7d01b50e0d17dc79c80000000000000000000000000000000000000000000000000000000000000000",
        "nonce": "0x16",
        "chainId": "0x7a69"
      },
      "additionalContracts": [],
      "isFixedGasLimit": false
    },
    {
      "hash": "0x531ebbdd2896e5755f9ab7c9b6c32f08db5b7852f1433a2911137c74774fcc0a",
      "transactionType": "CALL",
      "contractName": "G50ERC20",
      "contractAddress": "0x5fbdb2315678afecb367f032d93f642f64180aa3",
      "function": "maybeUpdate()",
      "arguments": [],
      "transaction": {
        "from": "0xf39fd6e51aad88f6f4ce6ab8827279cfffb92266",
        "to": "0x5fbdb2315678afecb367f032d93f642f64180aa3",
        "gas": "0x2052b",
        "value": "0x0",
        "input": "0x2f674ab9",
        "nonce": "0x17",
        "chainId": "0x7a69"
      },
      "additionalContracts": [],
      "isFixedGasLimit": false
    },
    {
      "hash": "0xfa106a511bd05654cd2c76f8c5932694783439c63972b6d924bee4dece6f165f",
      "transactionType": "CALL",
      "contractName": "G50ERC20",
      "contractAddress": "0x5fbdb2315678afecb367f032d93f642f64180aa3",
      "function": "sell(uint256)",
      "arguments": [
        "142857142"
      ],
      "transaction": {
        "from": "0xf39fd6e51aad88f6f4ce6ab8827279cfffb92266",
        "to": "0x5fbdb2315678afecb367f032d93f642f64180aa3",
        "gas": "0x42dd8",
        "value": "0x0",
        "input": "0xe4849b32000000000000000000000000000000000000000000000000000000000883d3b6",
        "nonce": "0x18",
        "chainId": "0x7a69"
      },
      "additionalContracts": [],
      "isFixedGasLimit": false
    }
  ],
  "receipts": [
    {
      "status": "0x1",
      "cumulativeGasUsed": "0x172cbd",
      "logs": [],
      "logsBloom": "0x00000000000000000000000000000000000000000000000000000000000000000000000000000000000000000000000000000000000000000000000000000000000000000000000000000000000000000000000000000000000000000000000000000000000000000000000000000000000000000000000000000000000000000000000000000000000000000000000000000000000000000000000000000000000000000000000000000000000000000000000000000000000000000000000000000000000000000000000000000000000000000000000000000000000000000000000000000000000000000000000000000000000000000000000000000000",
      "type": "0x2",
      "transactionHash": "0x5845dc07e5c68611afea263c3f3ec39eaffd2f4525b3e0d13f4fa5aface838f1",
      "transactionIndex": "0x0",
      "blockHash": "0x314aafb8e50559a867bdf4abaec53f2a4282174992ad8017e0de853584088b2e",
      "blockNumber": "0x1",
      "gasUsed": "0x172cbd",
      "effectiveGasPrice": "0x3b9aca01",
      "blobGasPrice": "0x1",
      "from": "0xf39fd6e51aad88f6f4ce6ab8827279cfffb92266",
      "to": null,
      "contractAddress": "0x5fbdb2315678afecb367f032d93f642f64180aa3"
    },
    {
      "status": "0x1",
      "cumulativeGasUsed": "0x11bd5",
      "logs": [
        {
          "address": "0x5fbdb2315678afecb367f032d93f642f64180aa3",
          "topics": [
            "0xddf252ad1be2c89b69c2b068fc378daa952ba7f163c4a11628f55a4df523b3ef",
            "0x0000000000000000000000000000000000000000000000000000000000000000",
            "0x000000000000000000000000f39fd6e51aad88f6f4ce6ab8827279cfffb92266"
          ],
          "data": "0x000000000000000000000000000000000000000000000000000000001107a76d",
          "blockHash": "0x92630ab3a70a699ab06a3c80f319ac165974db6c612e110b75e4488888283658",
          "blockNumber": "0x2",
          "blockTimestamp": "0x69dec99e",
          "transactionHash": "0x1547a0fd1ffa0dab95bb9262bbfbec1d3139859aaa3172c60709e3620f902f76",
          "transactionIndex": "0x0",
          "logIndex": "0x0",
          "removed": false
        }
      ],
      "logsBloom": "0x00000000000000000000000000000000000000000000000000000000000000000000000000000000000000000000000000000000000000000000000000000000000000000000000000000008000000000000000000000000000000000000000000000040020000000000000100000800000000000000000000000010000000000000000000000000000000000000000000000000000000000000000200000000000000000000000000000000000000000000000000000000000000000000000000000042000000200000000000000000000000002000000000000000000020000000000000000000000000000000000000000000000000000000000000000000",
      "type": "0x2",
      "transactionHash": "0x1547a0fd1ffa0dab95bb9262bbfbec1d3139859aaa3172c60709e3620f902f76",
      "transactionIndex": "0x0",
      "blockHash": "0x92630ab3a70a699ab06a3c80f319ac165974db6c612e110b75e4488888283658",
      "blockNumber": "0x2",
      "gasUsed": "0x11bd5",
      "effectiveGasPrice": "0x34e8903e",
      "blobGasPrice": "0x1",
      "from": "0xf39fd6e51aad88f6f4ce6ab8827279cfffb92266",
      "to": "0x5fbdb2315678afecb367f032d93f642f64180aa3",
      "contractAddress": null
    },
    {
      "status": "0x1",
      "cumulativeGasUsed": "0xd909",
      "logs": [
        {
          "address": "0x5fbdb2315678afecb367f032d93f642f64180aa3",
          "topics": [
            "0xddf252ad1be2c89b69c2b068fc378daa952ba7f163c4a11628f55a4df523b3ef",
            "0x0000000000000000000000000000000000000000000000000000000000000000",
            "0x00000000000000000000000070997970c51812dc3a010c7d01b50e0d17dc79c8"
          ],
          "data": "0x000000000000000000000000000000000000000000000000000000000b5a6f9e",
          "blockHash": "0xb52fa8fb3e11131cc6575909164911338031dd34db1c1ea8719db6aa161316e8",
          "blockNumber": "0x3",
          "blockTimestamp": "0x69dec99e",
          "transactionHash": "0x1d7347151fa2a8c2cd79a37a8eaa0cba8a3c29f29edd3c6e567631f582d8e430",
          "transactionIndex": "0x0",
          "logIndex": "0x0",
          "removed": false
        }
      ],
      "logsBloom": "0x00000000000000000002000000000000000000000000000000000000000000000000000000000000000000000000000000000000000000000000000000000000000000000000000000000008000000000000000000000000000000000000000000000840020000000000000000000800000000000000000000000010000000000000000000000000000000000000000000000000000000000000000200000000000000000000000000000000000000000000000000000000000000000000000000000042000000000000000000000000000000000000000000000000000020000000000000000000000000000000000001000000000000000000000000000000",
      "type": "0x2",
      "transactionHash": "0x1d7347151fa2a8c2cd79a37a8eaa0cba8a3c29f29edd3c6e567631f582d8e430",
      "transactionIndex": "0x0",
      "blockHash": "0xb52fa8fb3e11131cc6575909164911338031dd34db1c1ea8719db6aa161316e8",
      "blockNumber": "0x3",
      "gasUsed": "0xd909",
      "effectiveGasPrice": "0x2e53b1c2",
      "blobGasPrice": "0x1",
      "from": "0x70997970c51812dc3a010c7d01b50e0d17dc79c8",
      "to": "0x5fbdb2315678afecb367f032d93f642f64180aa3",
      "contractAddress": null
    },
    {
      "status": "0x1",
      "cumulativeGasUsed": "0xd909",
      "logs": [
        {
          "address": "0x5fbdb2315678afecb367f032d93f642f64180aa3",
          "topics": [
            "0xddf252ad1be2c89b69c2b068fc378daa952ba7f163c4a11628f55a4df523b3ef",
            "0x0000000000000000000000000000000000000000000000000000000000000000",
            "0x0000000000000000000000003c44cdddb6a900fa2b585dd299e03d12fa4293bc"
          ],
          "data": "0x0000000000000000000000000000000000000000000000000000000005ad37cf",
          "blockHash": "0x4fe39e44e3d17774fc983a5ebc199f4b90adc0924dc0ca3ac135bb64b14634d1",
          "blockNumber": "0x4",
          "blockTimestamp": "0x69dec99e",
          "transactionHash": "0xe96874699d01ade1ea80a267da509a02e2fde913976ffb39d9dbea0fd22d5c14",
          "transactionIndex": "0x0",
          "logIndex": "0x0",
          "removed": false
        }
      ],
      "logsBloom": "0x00000000000000000000000000000000000000000000000000000000000000000000000000000000000000000000000000000000000000000000000000100000000000000000000000000008000000000000000000000000000000000000000000000040020000000000000000000800000800000000000000000010000000000000000000000000000000000000000000000000000000000000000200000000000000000000200000000000000000000000000000000000000000000000000000000042000000000000000000000000000000000000000000000000000020000000000000000000000000000000000000000000000000000000000000000000",
      "type": "0x2",
      "transactionHash": "0xe96874699d01ade1ea80a267da509a02e2fde913976ffb39d9dbea0fd22d5c14",
      "transactionIndex": "0x0",
      "blockHash": "0x4fe39e44e3d17774fc983a5ebc199f4b90adc0924dc0ca3ac135bb64b14634d1",
      "blockNumber": "0x4",
      "gasUsed": "0xd909",
      "effectiveGasPrice": "0x288eb946",
      "blobGasPrice": "0x1",
      "from": "0x3c44cdddb6a900fa2b585dd299e03d12fa4293bc",
      "to": "0x5fbdb2315678afecb367f032d93f642f64180aa3",
      "contractAddress": null
    },
    {
      "status": "0x1",
      "cumulativeGasUsed": "0x6963",
      "logs": [
        {
          "address": "0x5fbdb2315678afecb367f032d93f642f64180aa3",
          "topics": [
            "0x8c5be1e5ebec7d5bd14f71427d1e84f3dd0314c0f7b2291e5b200ac8c7c3b925",
            "0x000000000000000000000000f39fd6e51aad88f6f4ce6ab8827279cfffb92266",
            "0x00000000000000000000000070997970c51812dc3a010c7d01b50e0d17dc79c8"
          ],
          "data": "0x0000000000000000000000000000000000000000000000000000000000000000",
          "blockHash": "0x86797b4218caf39841258977356080072bc05220c1911fa2e6a11fdba6f1c169",
          "blockNumber": "0x5",
          "blockTimestamp": "0x69dec99e",
          "transactionHash": "0xd134514f1dfc2d716f9741d02c3fc2f2988f397e8085954d32c38b6706205087",
          "transactionIndex": "0x0",
          "logIndex": "0x0",
          "removed": false
        }
      ],
      "logsBloom": "0x00000000000000000002000000000000000000000000000000000000000000000000000000000000000000000000000000000000000000000000000000200000000000000000000000000000000000000000000000000000000000000000000000000840000000000000000100000000000000000000000000000000000000000000000000000000000000000000000000000000000000000000000200000000020000000000000000000000000000000000000000000000000000000000000000000040000000200000000000000000000000002000000000000000000000000010000000000000000000000000000001000000000000000000000000000000",
      "type": "0x2",
      "transactionHash": "0xd134514f1dfc2d716f9741d02c3fc2f2988f397e8085954d32c38b6706205087",
      "transactionIndex": "0x0",
      "blockHash": "0x86797b4218caf39841258977356080072bc05220c1911fa2e6a11fdba6f1c169",
      "blockNumber": "0x5",
      "gasUsed": "0x6963",
      "effectiveGasPrice": "0x2381b0c8",
      "blobGasPrice": "0x1",
      "from": "0xf39fd6e51aad88f6f4ce6ab8827279cfffb92266",
      "to": "0x5fbdb2315678afecb367f032d93f642f64180aa3",
      "contractAddress": null
    },
    {
      "status": "0x1",
      "cumulativeGasUsed": "0x6963",
      "logs": [
        {
          "address": "0x5fbdb2315678afecb367f032d93f642f64180aa3",
          "topics": [
            "0x8c5be1e5ebec7d5bd14f71427d1e84f3dd0314c0f7b2291e5b200ac8c7c3b925",
            "0x000000000000000000000000f39fd6e51aad88f6f4ce6ab8827279cfffb92266",
            "0x00000000000000000000000070997970c51812dc3a010c7d01b50e0d17dc79c8"
          ],
          "data": "0x0000000000000000000000000000000000000000000000000000000000000000",
          "blockHash": "0xa6cffdec6cc44d22750f0c2dc39a025574162d10bee15b523bae92c25e726324",
          "blockNumber": "0x6",
          "blockTimestamp": "0x69dec99e",
          "transactionHash": "0x267088221f379f835d9848a725dce3a196bf3d7a2415f9795b880fea1ebae7fc",
          "transactionIndex": "0x0",
          "logIndex": "0x0",
          "removed": false
        }
      ],
      "logsBloom": "0x00000000000000000002000000000000000000000000000000000000000000000000000000000000000000000000000000000000000000000000000000200000000000000000000000000000000000000000000000000000000000000000000000000840000000000000000100000000000000000000000000000000000000000000000000000000000000000000000000000000000000000000000200000000020000000000000000000000000000000000000000000000000000000000000000000040000000200000000000000000000000002000000000000000000000000010000000000000000000000000000001000000000000000000000000000000",
      "type": "0x2",
      "transactionHash": "0x267088221f379f835d9848a725dce3a196bf3d7a2415f9795b880fea1ebae7fc",
      "transactionIndex": "0x0",
      "blockHash": "0xa6cffdec6cc44d22750f0c2dc39a025574162d10bee15b523bae92c25e726324",
      "blockNumber": "0x6",
      "gasUsed": "0x6963",
      "effectiveGasPrice": "0x1f1385d8",
      "blobGasPrice": "0x1",
      "from": "0xf39fd6e51aad88f6f4ce6ab8827279cfffb92266",
      "to": "0x5fbdb2315678afecb367f032d93f642f64180aa3",
      "contractAddress": null
    },
    {
      "status": "0x1",
      "cumulativeGasUsed": "0x6963",
      "logs": [
        {
          "address": "0x5fbdb2315678afecb367f032d93f642f64180aa3",
          "topics": [
            "0x8c5be1e5ebec7d5bd14f71427d1e84f3dd0314c0f7b2291e5b200ac8c7c3b925",
            "0x000000000000000000000000f39fd6e51aad88f6f4ce6ab8827279cfffb92266",
            "0x00000000000000000000000070997970c51812dc3a010c7d01b50e0d17dc79c8"
          ],
          "data": "0x0000000000000000000000000000000000000000000000000000000000000000",
          "blockHash": "0x5fdbd9f4f2c3bff44cccb1a1320f966f33217b48a07d39a4849a2bfd8a2d36bb",
          "blockNumber": "0x7",
          "blockTimestamp": "0x69dec99e",
          "transactionHash": "0x9aa172161e53ea54bd5f6377db4d4d02bdb53923dd54bc710ad46fc8649db535",
          "transactionIndex": "0x0",
          "logIndex": "0x0",
          "removed": false
        }
      ],
      "logsBloom": "0x00000000000000000002000000000000000000000000000000000000000000000000000000000000000000000000000000000000000000000000000000200000000000000000000000000000000000000000000000000000000000000000000000000840000000000000000100000000000000000000000000000000000000000000000000000000000000000000000000000000000000000000000200000000020000000000000000000000000000000000000000000000000000000000000000000040000000200000000000000000000000002000000000000000000000000010000000000000000000000000000001000000000000000000000000000000",
      "type": "0x2",
      "transactionHash": "0x9aa172161e53ea54bd5f6377db4d4d02bdb53923dd54bc710ad46fc8649db535",
      "transactionIndex": "0x0",
      "blockHash": "0x5fdbd9f4f2c3bff44cccb1a1320f966f33217b48a07d39a4849a2bfd8a2d36bb",
      "blockNumber": "0x7",
      "gasUsed": "0x6963",
      "effectiveGasPrice": "0x1b32deff",
      "blobGasPrice": "0x1",
      "from": "0xf39fd6e51aad88f6f4ce6ab8827279cfffb92266",
      "to": "0x5fbdb2315678afecb367f032d93f642f64180aa3",
      "contractAddress": null
    },
    {
      "status": "0x1",
      "cumulativeGasUsed": "0x6963",
      "logs": [
        {
          "address": "0x5fbdb2315678afecb367f032d93f642f64180aa3",
          "topics": [
            "0x8c5be1e5ebec7d5bd14f71427d1e84f3dd0314c0f7b2291e5b200ac8c7c3b925",
            "0x000000000000000000000000f39fd6e51aad88f6f4ce6ab8827279cfffb92266",
            "0x00000000000000000000000070997970c51812dc3a010c7d01b50e0d17dc79c8"
          ],
          "data": "0x0000000000000000000000000000000000000000000000000000000000000000",
          "blockHash": "0x38e10ddbee80a2d2a3b879f3d64a7f2214aa7503717128b23d68ae2b1a61d510",
          "blockNumber": "0x8",
          "blockTimestamp": "0x69dec99e",
          "transactionHash": "0xb05e5725921710275c04f18b0f8ab22e4432f37b06ba45fd05c2929c52178847",
          "transactionIndex": "0x0",
          "logIndex": "0x0",
          "removed": false
        }
      ],
      "logsBloom": "0x00000000000000000002000000000000000000000000000000000000000000000000000000000000000000000000000000000000000000000000000000200000000000000000000000000000000000000000000000000000000000000000000000000840000000000000000100000000000000000000000000000000000000000000000000000000000000000000000000000000000000000000000200000000020000000000000000000000000000000000000000000000000000000000000000000040000000200000000000000000000000002000000000000000000000000010000000000000000000000000000001000000000000000000000000000000",
      "type": "0x2",
      "transactionHash": "0xb05e5725921710275c04f18b0f8ab22e4432f37b06ba45fd05c2929c52178847",
      "transactionIndex": "0x0",
      "blockHash": "0x38e10ddbee80a2d2a3b879f3d64a7f2214aa7503717128b23d68ae2b1a61d510",
      "blockNumber": "0x8",
      "gasUsed": "0x6963",
      "effectiveGasPrice": "0x17ce13e0",
      "blobGasPrice": "0x1",
      "from": "0xf39fd6e51aad88f6f4ce6ab8827279cfffb92266",
      "to": "0x5fbdb2315678afecb367f032d93f642f64180aa3",
      "contractAddress": null
    },
    {
      "status": "0x1",
      "cumulativeGasUsed": "0x6963",
      "logs": [
        {
          "address": "0x5fbdb2315678afecb367f032d93f642f64180aa3",
          "topics": [
            "0x8c5be1e5ebec7d5bd14f71427d1e84f3dd0314c0f7b2291e5b200ac8c7c3b925",
            "0x000000000000000000000000f39fd6e51aad88f6f4ce6ab8827279cfffb92266",
            "0x00000000000000000000000070997970c51812dc3a010c7d01b50e0d17dc79c8"
          ],
          "data": "0x0000000000000000000000000000000000000000000000000000000000000000",
          "blockHash": "0xea3a506e57877a9583c88e753e40d063bc717f767e3ecb62153d14ab763fcb66",
          "blockNumber": "0x9",
          "blockTimestamp": "0x69dec99e",
          "transactionHash": "0xf2da851e24938f947104941532853f513ca14376e3dff6c3f42f3d9d9d7a255a",
          "transactionIndex": "0x0",
          "logIndex": "0x0",
          "removed": false
        }
      ],
      "logsBloom": "0x00000000000000000002000000000000000000000000000000000000000000000000000000000000000000000000000000000000000000000000000000200000000000000000000000000000000000000000000000000000000000000000000000000840000000000000000100000000000000000000000000000000000000000000000000000000000000000000000000000000000000000000000200000000020000000000000000000000000000000000000000000000000000000000000000000040000000200000000000000000000000002000000000000000000000000010000000000000000000000000000001000000000000000000000000000000",
      "type": "0x2",
      "transactionHash": "0xf2da851e24938f947104941532853f513ca14376e3dff6c3f42f3d9d9d7a255a",
      "transactionIndex": "0x0",
      "blockHash": "0xea3a506e57877a9583c88e753e40d063bc717f767e3ecb62153d14ab763fcb66",
      "blockNumber": "0x9",
      "gasUsed": "0x6963",
      "effectiveGasPrice": "0x14d5b024",
      "blobGasPrice": "0x1",
      "from": "0xf39fd6e51aad88f6f4ce6ab8827279cfffb92266",
      "to": "0x5fbdb2315678afecb367f032d93f642f64180aa3",
      "contractAddress": null
    },
    {
      "status": "0x1",
      "cumulativeGasUsed": "0x6963",
      "logs": [
        {
          "address": "0x5fbdb2315678afecb367f032d93f642f64180aa3",
          "topics": [
            "0x8c5be1e5ebec7d5bd14f71427d1e84f3dd0314c0f7b2291e5b200ac8c7c3b925",
            "0x000000000000000000000000f39fd6e51aad88f6f4ce6ab8827279cfffb92266",
            "0x00000000000000000000000070997970c51812dc3a010c7d01b50e0d17dc79c8"
          ],
          "data": "0x0000000000000000000000000000000000000000000000000000000000000000",
          "blockHash": "0x320e8212f1ab1de9877463383be38e0b1edef363c26579d1d70300f591b92ae3",
          "blockNumber": "0xa",
          "blockTimestamp": "0x69dec99e",
          "transactionHash": "0xa21e2a4ed7ce9606c425c3cada069ff9898735077432c27a69bfe29b9fbbd372",
          "transactionIndex": "0x0",
          "logIndex": "0x0",
          "removed": false
        }
      ],
      "logsBloom": "0x00000000000000000002000000000000000000000000000000000000000000000000000000000000000000000000000000000000000000000000000000200000000000000000000000000000000000000000000000000000000000000000000000000840000000000000000100000000000000000000000000000000000000000000000000000000000000000000000000000000000000000000000200000000020000000000000000000000000000000000000000000000000000000000000000000040000000200000000000000000000000002000000000000000000000000010000000000000000000000000000001000000000000000000000000000000",
      "type": "0x2",
      "transactionHash": "0xa21e2a4ed7ce9606c425c3cada069ff9898735077432c27a69bfe29b9fbbd372",
      "transactionIndex": "0x0",
      "blockHash": "0x320e8212f1ab1de9877463383be38e0b1edef363c26579d1d70300f591b92ae3",
      "blockNumber": "0xa",
      "gasUsed": "0x6963",
      "effectiveGasPrice": "0x123c2d1b",
      "blobGasPrice": "0x1",
      "from": "0xf39fd6e51aad88f6f4ce6ab8827279cfffb92266",
      "to": "0x5fbdb2315678afecb367f032d93f642f64180aa3",
      "contractAddress": null
    },
    {
      "status": "0x1",
      "cumulativeGasUsed": "0x6963",
      "logs": [
        {
          "address": "0x5fbdb2315678afecb367f032d93f642f64180aa3",
          "topics": [
            "0x8c5be1e5ebec7d5bd14f71427d1e84f3dd0314c0f7b2291e5b200ac8c7c3b925",
            "0x000000000000000000000000f39fd6e51aad88f6f4ce6ab8827279cfffb92266",
            "0x00000000000000000000000070997970c51812dc3a010c7d01b50e0d17dc79c8"
          ],
          "data": "0x0000000000000000000000000000000000000000000000000000000000000000",
          "blockHash": "0xd92c04807d3939970360b464f44cdcacc24f46a70f7ad92a20ee4a9c39e1b65a",
          "blockNumber": "0xb",
          "blockTimestamp": "0x69dec99e",
          "transactionHash": "0x861aa5905d52e02687cfd6bc408e6561bd89c19c429f36dd47a428a6a589df64",
          "transactionIndex": "0x0",
          "logIndex": "0x0",
          "removed": false
        }
      ],
      "logsBloom": "0x00000000000000000002000000000000000000000000000000000000000000000000000000000000000000000000000000000000000000000000000000200000000000000000000000000000000000000000000000000000000000000000000000000840000000000000000100000000000000000000000000000000000000000000000000000000000000000000000000000000000000000000000200000000020000000000000000000000000000000000000000000000000000000000000000000040000000200000000000000000000000002000000000000000000000000010000000000000000000000000000001000000000000000000000000000000",
      "type": "0x2",
      "transactionHash": "0x861aa5905d52e02687cfd6bc408e6561bd89c19c429f36dd47a428a6a589df64",
      "transactionIndex": "0x0",
      "blockHash": "0xd92c04807d3939970360b464f44cdcacc24f46a70f7ad92a20ee4a9c39e1b65a",
      "blockNumber": "0xb",
      "gasUsed": "0x6963",
      "effectiveGasPrice": "0xff5b426",
      "blobGasPrice": "0x1",
      "from": "0xf39fd6e51aad88f6f4ce6ab8827279cfffb92266",
      "to": "0x5fbdb2315678afecb367f032d93f642f64180aa3",
      "contractAddress": null
    },
    {
      "status": "0x1",
      "cumulativeGasUsed": "0x6963",
      "logs": [
        {
          "address": "0x5fbdb2315678afecb367f032d93f642f64180aa3",
          "topics": [
            "0x8c5be1e5ebec7d5bd14f71427d1e84f3dd0314c0f7b2291e5b200ac8c7c3b925",
            "0x000000000000000000000000f39fd6e51aad88f6f4ce6ab8827279cfffb92266",
            "0x00000000000000000000000070997970c51812dc3a010c7d01b50e0d17dc79c8"
          ],
          "data": "0x0000000000000000000000000000000000000000000000000000000000000000",
          "blockHash": "0xe248365ea5d37570cce702a5f5bef408969946de34e1df59b46ebbd9e3c67d51",
          "blockNumber": "0xc",
          "blockTimestamp": "0x69dec99e",
          "transactionHash": "0x20ee8cc347ece518d307ab26a342291c00c70a8f00f67ecbd7a3f1bee6107408",
          "transactionIndex": "0x0",
          "logIndex": "0x0",
          "removed": false
        }
      ],
      "logsBloom": "0x00000000000000000002000000000000000000000000000000000000000000000000000000000000000000000000000000000000000000000000000000200000000000000000000000000000000000000000000000000000000000000000000000000840000000000000000100000000000000000000000000000000000000000000000000000000000000000000000000000000000000000000000200000000020000000000000000000000000000000000000000000000000000000000000000000040000000200000000000000000000000002000000000000000000000000010000000000000000000000000000001000000000000000000000000000000",
      "type": "0x2",
      "transactionHash": "0x20ee8cc347ece518d307ab26a342291c00c70a8f00f67ecbd7a3f1bee6107408",
      "transactionIndex": "0x0",
      "blockHash": "0xe248365ea5d37570cce702a5f5bef408969946de34e1df59b46ebbd9e3c67d51",
      "blockNumber": "0xc",
      "gasUsed": "0x6963",
      "effectiveGasPrice": "0xdf7e8c9",
      "blobGasPrice": "0x1",
      "from": "0xf39fd6e51aad88f6f4ce6ab8827279cfffb92266",
      "to": "0x5fbdb2315678afecb367f032d93f642f64180aa3",
      "contractAddress": null
    },
    {
      "status": "0x1",
      "cumulativeGasUsed": "0x6963",
      "logs": [
        {
          "address": "0x5fbdb2315678afecb367f032d93f642f64180aa3",
          "topics": [
            "0x8c5be1e5ebec7d5bd14f71427d1e84f3dd0314c0f7b2291e5b200ac8c7c3b925",
            "0x000000000000000000000000f39fd6e51aad88f6f4ce6ab8827279cfffb92266",
            "0x00000000000000000000000070997970c51812dc3a010c7d01b50e0d17dc79c8"
          ],
          "data": "0x0000000000000000000000000000000000000000000000000000000000000000",
          "blockHash": "0xaf3106251f02bb1a0241d99c76585100b3b6a4e6110e0716b5ca8e577ff4388c",
          "blockNumber": "0xd",
          "blockTimestamp": "0x69dec99e",
          "transactionHash": "0x3432d8ff1a55743852259c4874874907252d01a9f0f017760b00e6cb515acfe1",
          "transactionIndex": "0x0",
          "logIndex": "0x0",
          "removed": false
        }
      ],
      "logsBloom": "0x00000000000000000002000000000000000000000000000000000000000000000000000000000000000000000000000000000000000000000000000000200000000000000000000000000000000000000000000000000000000000000000000000000840000000000000000100000000000000000000000000000000000000000000000000000000000000000000000000000000000000000000000200000000020000000000000000000000000000000000000000000000000000000000000000000040000000200000000000000000000000002000000000000000000000000010000000000000000000000000000001000000000000000000000000000000",
      "type": "0x2",
      "transactionHash": "0x3432d8ff1a55743852259c4874874907252d01a9f0f017760b00e6cb515acfe1",
      "transactionIndex": "0x0",
      "blockHash": "0xaf3106251f02bb1a0241d99c76585100b3b6a4e6110e0716b5ca8e577ff4388c",
      "blockNumber": "0xd",
      "gasUsed": "0x6963",
      "effectiveGasPrice": "0xc39b980",
      "blobGasPrice": "0x1",
      "from": "0xf39fd6e51aad88f6f4ce6ab8827279cfffb92266",
      "to": "0x5fbdb2315678afecb367f032d93f642f64180aa3",
      "contractAddress": null
    },
    {
      "status": "0x1",
      "cumulativeGasUsed": "0x6963",
      "logs": [
        {
          "address": "0x5fbdb2315678afecb367f032d93f642f64180aa3",
          "topics": [
            "0x8c5be1e5ebec7d5bd14f71427d1e84f3dd0314c0f7b2291e5b200ac8c7c3b925",
            "0x000000000000000000000000f39fd6e51aad88f6f4ce6ab8827279cfffb92266",
            "0x00000000000000000000000070997970c51812dc3a010c7d01b50e0d17dc79c8"
          ],
          "data": "0x0000000000000000000000000000000000000000000000000000000000000000",
          "blockHash": "0x67a9d7af5c5aef0012421c1b5336c16bff10857ef27b25a6b54091b661fd2139",
          "blockNumber": "0xe",
          "blockTimestamp": "0x69dec99e",
          "transactionHash": "0x3b7778f8bc765548c0ce394f1ec60dce0c3be24c48f9b011cc69592c45bff58b",
          "transactionIndex": "0x0",
          "logIndex": "0x0",
          "removed": false
        }
      ],
      "logsBloom": "0x00000000000000000002000000000000000000000000000000000000000000000000000000000000000000000000000000000000000000000000000000200000000000000000000000000000000000000000000000000000000000000000000000000840000000000000000100000000000000000000000000000000000000000000000000000000000000000000000000000000000000000000000200000000020000000000000000000000000000000000000000000000000000000000000000000040000000200000000000000000000000002000000000000000000000000010000000000000000000000000000001000000000000000000000000000000",
      "type": "0x2",
      "transactionHash": "0x3b7778f8bc765548c0ce394f1ec60dce0c3be24c48f9b011cc69592c45bff58b",
      "transactionIndex": "0x0",
      "blockHash": "0x67a9d7af5c5aef0012421c1b5336c16bff10857ef27b25a6b54091b661fd2139",
      "blockNumber": "0xe",
      "gasUsed": "0x6963",
      "effectiveGasPrice": "0xab33672",
      "blobGasPrice": "0x1",
      "from": "0xf39fd6e51aad88f6f4ce6ab8827279cfffb92266",
      "to": "0x5fbdb2315678afecb367f032d93f642f64180aa3",
      "contractAddress": null
    },
    {
      "status": "0x1",
      "cumulativeGasUsed": "0xa1f2",
      "logs": [
        {
          "address": "0x5fbdb2315678afecb367f032d93f642f64180aa3",
          "topics": [
            "0xf08a3b46f5df3430999903a65464921cb8ad37ea42c9fcced53d74978c180f51"
          ],
          "data": "0x0000000000000000000000000000000000000000000000000000000271d9491a000000000000000000000000000000000000000000000000000000029124265b000000000000000000000000000000000000000000000000000000000000000f",
          "blockHash": "0xdc07313aab14953598dd0f103e6b170796e4ca84495685f38887173c401b58da",
          "blockNumber": "0xf",
          "blockTimestamp": "0x69dec99e",
          "transactionHash": "0x46563a3eb77e6e2697ad885472f0999adf6bbcd69fb0d562a7ef9793738c121f",
          "transactionIndex": "0x0",
          "logIndex": "0x0",
          "removed": false
        }
      ],
      "logsBloom": "0x00000000000000000000000000000000000000000000000000000000000000000000000000000000000000000000000000000000000000000000000000000000000000000000000000000000000000000000000000000000000000000000000000000040000000000000000000000000000000000000000000000000000000000000000000000000000000000000000000000000000000000000000200000000000000000000000000000000000000000000000000000040000000000000000000000040000000000000000000001400000000000000000000000000000000000000000000000000000000000000000000000000000000000000000000000000",
      "type": "0x2",
      "transactionHash": "0x46563a3eb77e6e2697ad885472f0999adf6bbcd69fb0d562a7ef9793738c121f",
      "transactionIndex": "0x0",
      "blockHash": "0xdc07313aab14953598dd0f103e6b170796e4ca84495685f38887173c401b58da",
      "blockNumber": "0xf",
      "gasUsed": "0xa1f2",
      "effectiveGasPrice": "0x95d6d4c",
      "blobGasPrice": "0x1",
      "from": "0xf39fd6e51aad88f6f4ce6ab8827279cfffb92266",
      "to": "0x5fbdb2315678afecb367f032d93f642f64180aa3",
      "contractAddress": null
    },
    {
      "status": "0x1",
      "cumulativeGasUsed": "0xbe32",
      "logs": [
        {
          "address": "0x5fbdb2315678afecb367f032d93f642f64180aa3",
          "topics": [
            "0xddf252ad1be2c89b69c2b068fc378daa952ba7f163c4a11628f55a4df523b3ef",
            "0x00000000000000000000000070997970c51812dc3a010c7d01b50e0d17dc79c8",
            "0x0000000000000000000000000000000000000000000000000000000000000000"
          ],
          "data": "0x0000000000000000000000000000000000000000000000000000000005ad37cf",
          "blockHash": "0xd3658187a5ce800c4af253a171b1d1e11feba57ee3d85e85b37680ae439977c4",
          "blockNumber": "0x10",
          "blockTimestamp": "0x69dec99e",
          "transactionHash": "0x2c680a42beb42bbfe97af50e9d53794ad175b4e98ee7cc612af958f406fdd2a0",
          "transactionIndex": "0x0",
          "logIndex": "0x0",
          "removed": false
        }
      ],
      "logsBloom": "0x00000000000000000002000000000000000000000000000000000000000000000000000000000000000000000000000000000000000000000000000000000000000000000000000000000008000000000000000000000000000000000000000000000840020000000000000000000800000000000000000000000010000000000000000000000000000000000000000000000000000000000000000200000000000000000000000000000000000000000000000000000000000000000000000000000042000000000000000000000000000000000000000000000000000020000000000000000000000000000000000001000000000000000000000000000000",
      "type": "0x2",
      "transactionHash": "0x2c680a42beb42bbfe97af50e9d53794ad175b4e98ee7cc612af958f406fdd2a0",
      "transactionIndex": "0x0",
      "blockHash": "0xd3658187a5ce800c4af253a171b1d1e11feba57ee3d85e85b37680ae439977c4",
      "blockNumber": "0x10",
      "gasUsed": "0xbe32",
      "effectiveGasPrice": "0x83293ad",
      "blobGasPrice": "0x1",
      "from": "0x70997970c51812dc3a010c7d01b50e0d17dc79c8",
      "to": "0x5fbdb2315678afecb367f032d93f642f64180aa3",
      "contractAddress": null
    },
    {
      "status": "0x1",
      "cumulativeGasUsed": "0xd909",
      "logs": [
        {
          "address": "0x5fbdb2315678afecb367f032d93f642f64180aa3",
          "topics": [
            "0xddf252ad1be2c89b69c2b068fc378daa952ba7f163c4a11628f55a4df523b3ef",
            "0x0000000000000000000000000000000000000000000000000000000000000000",
            "0x00000000000000000000000090f79bf6eb2c4f870365e785982e1f101e93b906"
          ],
          "data": "0x00000000000000000000000000000000000000000000000000000000081c0695",
          "blockHash": "0x29cb0b91c8592b0f027023e04aa2b4aced48824de2ce647139365dea8934dca5",
          "blockNumber": "0x11",
          "blockTimestamp": "0x69dec99e",
          "transactionHash": "0x9e0a8f1e648241ccc3df6c8f6bf80e378721a9037e8693acc87626f5e8271469",
          "transactionIndex": "0x0",
          "logIndex": "0x0",
          "removed": false
        }
      ],
      "logsBloom": "0x00000000000000000000000000000000000000000000000000000000000000000000000000000000000000000000000000000000000000000000000000000000000000000000000000000008000000000000000000000000000000000000000000000040020000000000000000000800000000000000000000000010000000000000000000000000000000000000000000000000000000000400000200000000000000000000000000000000000000000000000000000000000000000000000000000042000000000000000000000000400000000000000000000000000020000000000000000000000010000000000000000000000000000000000000000000",
      "type": "0x2",
      "transactionHash": "0x9e0a8f1e648241ccc3df6c8f6bf80e378721a9037e8693acc87626f5e8271469",
      "transactionIndex": "0x0",
      "blockHash": "0x29cb0b91c8592b0f027023e04aa2b4aced48824de2ce647139365dea8934dca5",
      "blockNumber": "0x11",
      "gasUsed": "0xd909",
      "effectiveGasPrice": "0x72d1b34",
      "blobGasPrice": "0x1",
      "from": "0x90f79bf6eb2c4f870365e785982e1f101e93b906",
      "to": "0x5fbdb2315678afecb367f032d93f642f64180aa3",
      "contractAddress": null
    },
    {
      "status": "0x1",
      "cumulativeGasUsed": "0x963d",
      "logs": [
        {
          "address": "0x5fbdb2315678afecb367f032d93f642f64180aa3",
          "topics": [
            "0xddf252ad1be2c89b69c2b068fc378daa952ba7f163c4a11628f55a4df523b3ef",
            "0x0000000000000000000000000000000000000000000000000000000000000000",
            "0x0000000000000000000000003c44cdddb6a900fa2b585dd299e03d12fa4293bc"
          ],
          "data": "0x0000000000000000000000000000000000000000000000000000000002b40231",
          "blockHash": "0x1de9f80373b6f9a2eea9365ce2f9e1a2c9c5e3ae046305af04081b777714b552",
          "blockNumber": "0x12",
          "blockTimestamp": "0x69dec99e",
          "transactionHash": "0xf590499ded40eef6faeb609f8eaf187d2b6adfbe5d10bbbfbbe0d45086e3fd9f",
          "transactionIndex": "0x0",
          "logIndex": "0x0",
          "removed": false
        }
      ],
      "logsBloom": "0x00000000000000000000000000000000000000000000000000000000000000000000000000000000000000000000000000000000000000000000000000100000000000000000000000000008000000000000000000000000000000000000000000000040020000000000000000000800000800000000000000000010000000000000000000000000000000000000000000000000000000000000000200000000000000000000200000000000000000000000000000000000000000000000000000000042000000000000000000000000000000000000000000000000000020000000000000000000000000000000000000000000000000000000000000000000",
      "type": "0x2",
      "transactionHash": "0xf590499ded40eef6faeb609f8eaf187d2b6adfbe5d10bbbfbbe0d45086e3fd9f",
      "transactionIndex": "0x0",
      "blockHash": "0x1de9f80373b6f9a2eea9365ce2f9e1a2c9c5e3ae046305af04081b777714b552",
      "blockNumber": "0x12",
      "gasUsed": "0x963d",
      "effectiveGasPrice": "0x648518f",
      "blobGasPrice": "0x1",
      "from": "0x3c44cdddb6a900fa2b585dd299e03d12fa4293bc",
      "to": "0x5fbdb2315678afecb367f032d93f642f64180aa3",
      "contractAddress": null
    },
    {
      "status": "0x1",
      "cumulativeGasUsed": "0x6963",
      "logs": [
        {
          "address": "0x5fbdb2315678afecb367f032d93f642f64180aa3",
          "topics": [
            "0x8c5be1e5ebec7d5bd14f71427d1e84f3dd0314c0f7b2291e5b200ac8c7c3b925",
            "0x000000000000000000000000f39fd6e51aad88f6f4ce6ab8827279cfffb92266",
            "0x00000000000000000000000070997970c51812dc3a010c7d01b50e0d17dc79c8"
          ],
          "data": "0x0000000000000000000000000000000000000000000000000000000000000000",
          "blockHash": "0xde3f73a0f85a6a4b726a7987910610293be110daa74d7030f077afb805dcf05c",
          "blockNumber": "0x13",
          "blockTimestamp": "0x69dec99e",
          "transactionHash": "0xd62657487abc507779d301e4d48705a5773958448177ef4c16a7e0d4de91c0f8",
          "transactionIndex": "0x0",
          "logIndex": "0x0",
          "removed": false
        }
      ],
      "logsBloom": "0x00000000000000000002000000000000000000000000000000000000000000000000000000000000000000000000000000000000000000000000000000200000000000000000000000000000000000000000000000000000000000000000000000000840000000000000000100000000000000000000000000000000000000000000000000000000000000000000000000000000000000000000000200000000020000000000000000000000000000000000000000000000000000000000000000000040000000200000000000000000000000002000000000000000000000000010000000000000000000000000000001000000000000000000000000000000",
      "type": "0x2",
      "transactionHash": "0xd62657487abc507779d301e4d48705a5773958448177ef4c16a7e0d4de91c0f8",
      "transactionIndex": "0x0",
      "blockHash": "0xde3f73a0f85a6a4b726a7987910610293be110daa74d7030f077afb805dcf05c",
      "blockNumber": "0x13",
      "gasUsed": "0x6963",
      "effectiveGasPrice": "0x57fcb54",
      "blobGasPrice": "0x1",
      "from": "0xf39fd6e51aad88f6f4ce6ab8827279cfffb92266",
      "to": "0x5fbdb2315678afecb367f032d93f642f64180aa3",
      "contractAddress": null
    },
    {
      "status": "0x1",
      "cumulativeGasUsed": "0x6963",
      "logs": [
        {
          "address": "0x5fbdb2315678afecb367f032d93f642f64180aa3",
          "topics": [
            "0x8c5be1e5ebec7d5bd14f71427d1e84f3dd0314c0f7b2291e5b200ac8c7c3b925",
            "0x000000000000000000000000f39fd6e51aad88f6f4ce6ab8827279cfffb92266",
            "0x00000000000000000000000070997970c51812dc3a010c7d01b50e0d17dc79c8"
          ],
          "data": "0x0000000000000000000000000000000000000000000000000000000000000000",
          "blockHash": "0x5354b80753cab1912bf8cd1f9d4c485b77941aef11a1f316d97904170fd6e05d",
          "blockNumber": "0x14",
          "blockTimestamp": "0x69dec99e",
          "transactionHash": "0x68565f49c73d484414f3a60566347d2a1e005f8c69ab910b322c7cb270accafb",
          "transactionIndex": "0x0",
          "logIndex": "0x0",
          "removed": false
        }
      ],
      "logsBloom": "0x00000000000000000002000000000000000000000000000000000000000000000000000000000000000000000000000000000000000000000000000000200000000000000000000000000000000000000000000000000000000000000000000000000840000000000000000100000000000000000000000000000000000000000000000000000000000000000000000000000000000000000000000200000000020000000000000000000000000000000000000000000000000000000000000000000040000000200000000000000000000000002000000000000000000000000010000000000000000000000000000001000000000000000000000000000000",
      "type": "0x2",
      "transactionHash": "0x68565f49c73d484414f3a60566347d2a1e005f8c69ab910b322c7cb270accafb",
      "transactionIndex": "0x0",
      "blockHash": "0x5354b80753cab1912bf8cd1f9d4c485b77941aef11a1f316d97904170fd6e05d",
      "blockNumber": "0x14",
      "gasUsed": "0x6963",
      "effectiveGasPrice": "0x4d022f1",
      "blobGasPrice": "0x1",
      "from": "0xf39fd6e51aad88f6f4ce6ab8827279cfffb92266",
      "to": "0x5fbdb2315678afecb367f032d93f642f64180aa3",
      "contractAddress": null
    },
    {
      "status": "0x1",
      "cumulativeGasUsed": "0x6963",
      "logs": [
        {
          "address": "0x5fbdb2315678afecb367f032d93f642f64180aa3",
          "topics": [
            "0x8c5be1e5ebec7d5bd14f71427d1e84f3dd0314c0f7b2291e5b200ac8c7c3b925",
            "0x000000000000000000000000f39fd6e51aad88f6f4ce6ab8827279cfffb92266",
            "0x00000000000000000000000070997970c51812dc3a010c7d01b50e0d17dc79c8"
          ],
          "data": "0x0000000000000000000000000000000000000000000000000000000000000000",
          "blockHash": "0xcb3284d785ef2efba97ac4bea46cb44794331f4f124f65618c30a654b3750657",
          "blockNumber": "0x15",
          "blockTimestamp": "0x69dec99e",
          "transactionHash": "0x283f062b749e48429c4b94f8588ef9d7c1c66a3b72521d4d20329abf86aca3ae",
          "transactionIndex": "0x0",
          "logIndex": "0x0",
          "removed": false
        }
      ],
      "logsBloom": "0x00000000000000000002000000000000000000000000000000000000000000000000000000000000000000000000000000000000000000000000000000200000000000000000000000000000000000000000000000000000000000000000000000000840000000000000000100000000000000000000000000000000000000000000000000000000000000000000000000000000000000000000000200000000020000000000000000000000000000000000000000000000000000000000000000000040000000200000000000000000000000002000000000000000000000000010000000000000000000000000000001000000000000000000000000000000",
      "type": "0x2",
      "transactionHash": "0x283f062b749e48429c4b94f8588ef9d7c1c66a3b72521d4d20329abf86aca3ae",
      "transactionIndex": "0x0",
      "blockHash": "0xcb3284d785ef2efba97ac4bea46cb44794331f4f124f65618c30a654b3750657",
      "blockNumber": "0x15",
      "gasUsed": "0x6963",
      "effectiveGasPrice": "0x436657e",
      "blobGasPrice": "0x1",
      "from": "0xf39fd6e51aad88f6f4ce6ab8827279cfffb92266",
      "to": "0x5fbdb2315678afecb367f032d93f642f64180aa3",
      "contractAddress": null
    },
    {
      "status": "0x1",
      "cumulativeGasUsed": "0x6963",
      "logs": [
        {
          "address": "0x5fbdb2315678afecb367f032d93f642f64180aa3",
          "topics": [
            "0x8c5be1e5ebec7d5bd14f71427d1e84f3dd0314c0f7b2291e5b200ac8c7c3b925",
            "0x000000000000000000000000f39fd6e51aad88f6f4ce6ab8827279cfffb92266",
            "0x00000000000000000000000070997970c51812dc3a010c7d01b50e0d17dc79c8"
          ],
          "data": "0x0000000000000000000000000000000000000000000000000000000000000000",
          "blockHash": "0x07a7794c26e0417dbca8b07b94bd18df6d920f23d812082504c14eaeeb764e6a",
          "blockNumber": "0x16",
          "blockTimestamp": "0x69dec99e",
          "transactionHash": "0x11ddd308dd3648d6adf26b988185926c943cd152276fb49cc08fb515978f5131",
          "transactionIndex": "0x0",
          "logIndex": "0x0",
          "removed": false
        }
      ],
      "logsBloom": "0x00000000000000000002000000000000000000000000000000000000000000000000000000000000000000000000000000000000000000000000000000200000000000000000000000000000000000000000000000000000000000000000000000000840000000000000000100000000000000000000000000000000000000000000000000000000000000000000000000000000000000000000000200000000020000000000000000000000000000000000000000000000000000000000000000000040000000200000000000000000000000002000000000000000000000000010000000000000000000000000000001000000000000000000000000000000",
      "type": "0x2",
      "transactionHash": "0x11ddd308dd3648d6adf26b988185926c943cd152276fb49cc08fb515978f5131",
      "transactionIndex": "0x0",
      "blockHash": "0x07a7794c26e0417dbca8b07b94bd18df6d920f23d812082504c14eaeeb764e6a",
      "blockNumber": "0x16",
      "gasUsed": "0x6963",
      "effectiveGasPrice": "0x3afd6e0",
      "blobGasPrice": "0x1",
      "from": "0xf39fd6e51aad88f6f4ce6ab8827279cfffb92266",
      "to": "0x5fbdb2315678afecb367f032d93f642f64180aa3",
      "contractAddress": null
    },
    {
      "status": "0x1",
      "cumulativeGasUsed": "0x6963",
      "logs": [
        {
          "address": "0x5fbdb2315678afecb367f032d93f642f64180aa3",
          "topics": [
            "0x8c5be1e5ebec7d5bd14f71427d1e84f3dd0314c0f7b2291e5b200ac8c7c3b925",
            "0x000000000000000000000000f39fd6e51aad88f6f4ce6ab8827279cfffb92266",
            "0x00000000000000000000000070997970c51812dc3a010c7d01b50e0d17dc79c8"
          ],
          "data": "0x0000000000000000000000000000000000000000000000000000000000000000",
          "blockHash": "0x22b52529263f24d156ea99a62995298d92a1d1e72c9688270e3987e582e42782",
          "blockNumber": "0x17",
          "blockTimestamp": "0x69dec99e",
          "transactionHash": "0xf6ba9c9e238a383dfbbaeb86292d7cde08d88c8ce51e68a4e02f6b867ad45c1d",
          "transactionIndex": "0x0",
          "logIndex": "0x0",
          "removed": false
        }
      ],
      "logsBloom": "0x00000000000000000002000000000000000000000000000000000000000000000000000000000000000000000000000000000000000000000000000000200000000000000000000000000000000000000000000000000000000000000000000000000840000000000000000100000000000000000000000000000000000000000000000000000000000000000000000000000000000000000000000200000000020000000000000000000000000000000000000000000000000000000000000000000040000000200000000000000000000000002000000000000000000000000010000000000000000000000000000001000000000000000000000000000000",
      "type": "0x2",
      "transactionHash": "0xf6ba9c9e238a383dfbbaeb86292d7cde08d88c8ce51e68a4e02f6b867ad45c1d",
      "transactionIndex": "0x0",
      "blockHash": "0x22b52529263f24d156ea99a62995298d92a1d1e72c9688270e3987e582e42782",
      "blockNumber": "0x17",
      "gasUsed": "0x6963",
      "effectiveGasPrice": "0x33a1257",
      "blobGasPrice": "0x1",
      "from": "0xf39fd6e51aad88f6f4ce6ab8827279cfffb92266",
      "to": "0x5fbdb2315678afecb367f032d93f642f64180aa3",
      "contractAddress": null
    },
    {
      "status": "0x1",
      "cumulativeGasUsed": "0x6963",
      "logs": [
        {
          "address": "0x5fbdb2315678afecb367f032d93f642f64180aa3",
          "topics": [
            "0x8c5be1e5ebec7d5bd14f71427d1e84f3dd0314c0f7b2291e5b200ac8c7c3b925",
            "0x000000000000000000000000f39fd6e51aad88f6f4ce6ab8827279cfffb92266",
            "0x00000000000000000000000070997970c51812dc3a010c7d01b50e0d17dc79c8"
          ],
          "data": "0x0000000000000000000000000000000000000000000000000000000000000000",
          "blockHash": "0x83fb8199e8c85a1f347471e087f55d8a51e81d0ef37147032fa9a0d3ac46080e",
          "blockNumber": "0x18",
          "blockTimestamp": "0x69dec99e",
          "transactionHash": "0x0c2679479e277ee822d88da74b84e6f49e2f6d1a27e142aa521689f4e60e7777",
          "transactionIndex": "0x0",
          "logIndex": "0x0",
          "removed": false
        }
      ],
      "logsBloom": "0x00000000000000000002000000000000000000000000000000000000000000000000000000000000000000000000000000000000000000000000000000200000000000000000000000000000000000000000000000000000000000000000000000000840000000000000000100000000000000000000000000000000000000000000000000000000000000000000000000000000000000000000000200000000020000000000000000000000000000000000000000000000000000000000000000000040000000200000000000000000000000002000000000000000000000000010000000000000000000000000000001000000000000000000000000000000",
      "type": "0x2",
      "transactionHash": "0x0c2679479e277ee822d88da74b84e6f49e2f6d1a27e142aa521689f4e60e7777",
      "transactionIndex": "0x0",
      "blockHash": "0x83fb8199e8c85a1f347471e087f55d8a51e81d0ef37147032fa9a0d3ac46080e",
      "blockNumber": "0x18",
      "gasUsed": "0x6963",
      "effectiveGasPrice": "0x2d2ff98",
      "blobGasPrice": "0x1",
      "from": "0xf39fd6e51aad88f6f4ce6ab8827279cfffb92266",
      "to": "0x5fbdb2315678afecb367f032d93f642f64180aa3",
      "contractAddress": null
    },
    {
      "status": "0x1",
      "cumulativeGasUsed": "0x6963",
      "logs": [
        {
          "address": "0x5fbdb2315678afecb367f032d93f642f64180aa3",
          "topics": [
            "0x8c5be1e5ebec7d5bd14f71427d1e84f3dd0314c0f7b2291e5b200ac8c7c3b925",
            "0x000000000000000000000000f39fd6e51aad88f6f4ce6ab8827279cfffb92266",
            "0x00000000000000000000000070997970c51812dc3a010c7d01b50e0d17dc79c8"
          ],
          "data": "0x0000000000000000000000000000000000000000000000000000000000000000",
          "blockHash": "0x7fed113a100085ae45d3762c44df323234c1edb39b5128df081780de4a8a8045",
          "blockNumber": "0x19",
          "blockTimestamp": "0x69dec99e",
          "transactionHash": "0xa4c36655b912b35bd27a639147468e85adcc1d835f0ed4083f0c7244751f3713",
          "transactionIndex": "0x0",
          "logIndex": "0x0",
          "removed": false
        }
      ],
      "logsBloom": "0x00000000000000000002000000000000000000000000000000000000000000000000000000000000000000000000000000000000000000000000000000200000000000000000000000000000000000000000000000000000000000000000000000000840000000000000000100000000000000000000000000000000000000000000000000000000000000000000000000000000000000000000000200000000020000000000000000000000000000000000000000000000000000000000000000000040000000200000000000000000000000002000000000000000000000000010000000000000000000000000000001000000000000000000000000000000",
      "type": "0x2",
      "transactionHash": "0xa4c36655b912b35bd27a639147468e85adcc1d835f0ed4083f0c7244751f3713",
      "transactionIndex": "0x0",
      "blockHash": "0x7fed113a100085ae45d3762c44df323234c1edb39b5128df081780de4a8a8045",
      "blockNumber": "0x19",
      "gasUsed": "0x6963",
      "effectiveGasPrice": "0x278c942",
      "blobGasPrice": "0x1",
      "from": "0xf39fd6e51aad88f6f4ce6ab8827279cfffb92266",
      "to": "0x5fbdb2315678afecb367f032d93f642f64180aa3",
      "contractAddress": null
    },
    {
      "status": "0x1",
      "cumulativeGasUsed": "0x6963",
      "logs": [
        {
          "address": "0x5fbdb2315678afecb367f032d93f642f64180aa3",
          "topics": [
            "0x8c5be1e5ebec7d5bd14f71427d1e84f3dd0314c0f7b2291e5b200ac8c7c3b925",
            "0x000000000000000000000000f39fd6e51aad88f6f4ce6ab8827279cfffb92266",
            "0x00000000000000000000000070997970c51812dc3a010c7d01b50e0d17dc79c8"
          ],
          "data": "0x0000000000000000000000000000000000000000000000000000000000000000",
          "blockHash": "0x382e652e30c682c673e367c47c39a570eb9ec779c2a759a5a9ed48d9c36c6199",
          "blockNumber": "0x1a",
          "blockTimestamp": "0x69dec99e",
          "transactionHash": "0xb9a1975221228eaac837403c2bc103ff6c573f54d73742e52e44a826478529b6",
          "transactionIndex": "0x0",
          "logIndex": "0x0",
          "removed": false
        }
      ],
      "logsBloom": "0x00000000000000000002000000000000000000000000000000000000000000000000000000000000000000000000000000000000000000000000000000200000000000000000000000000000000000000000000000000000000000000000000000000840000000000000000100000000000000000000000000000000000000000000000000000000000000000000000000000000000000000000000200000000020000000000000000000000000000000000000000000000000000000000000000000040000000200000000000000000000000002000000000000000000000000010000000000000000000000000000001000000000000000000000000000000",
      "type": "0x2",
      "transactionHash": "0xb9a1975221228eaac837403c2bc103ff6c573f54d73742e52e44a826478529b6",
      "transactionIndex": "0x0",
      "blockHash": "0x382e652e30c682c673e367c47c39a570eb9ec779c2a759a5a9ed48d9c36c6199",
      "blockNumber": "0x1a",
      "gasUsed": "0x6963",
      "effectiveGasPrice": "0x229d486",
      "blobGasPrice": "0x1",
      "from": "0xf39fd6e51aad88f6f4ce6ab8827279cfffb92266",
      "to": "0x5fbdb2315678afecb367f032d93f642f64180aa3",
      "contractAddress": null
    },
    {
      "status": "0x1",
      "cumulativeGasUsed": "0x6963",
      "logs": [
        {
          "address": "0x5fbdb2315678afecb367f032d93f642f64180aa3",
          "topics": [
            "0x8c5be1e5ebec7d5bd14f71427d1e84f3dd0314c0f7b2291e5b200ac8c7c3b925",
            "0x000000000000000000000000f39fd6e51aad88f6f4ce6ab8827279cfffb92266",
            "0x00000000000000000000000070997970c51812dc3a010c7d01b50e0d17dc79c8"
          ],
          "data": "0x0000000000000000000000000000000000000000000000000000000000000000",
          "blockHash": "0xe01ed615f99848f8c77abef94469165e75159e8c669fffb6ee8eb13b61383a12",
          "blockNumber": "0x1b",
          "blockTimestamp": "0x69dec99e",
          "transactionHash": "0x1115bd22eb9d7071ef32acff364ee976b18878dee261e22130e8491458467b9a",
          "transactionIndex": "0x0",
          "logIndex": "0x0",
          "removed": false
        }
      ],
      "logsBloom": "0x00000000000000000002000000000000000000000000000000000000000000000000000000000000000000000000000000000000000000000000000000200000000000000000000000000000000000000000000000000000000000000000000000000840000000000000000100000000000000000000000000000000000000000000000000000000000000000000000000000000000000000000000200000000020000000000000000000000000000000000000000000000000000000000000000000040000000200000000000000000000000002000000000000000000000000010000000000000000000000000000001000000000000000000000000000000",
      "type": "0x2",
      "transactionHash": "0x1115bd22eb9d7071ef32acff364ee976b18878dee261e22130e8491458467b9a",
      "transactionIndex": "0x0",
      "blockHash": "0xe01ed615f99848f8c77abef94469165e75159e8c669fffb6ee8eb13b61383a12",
      "blockNumber": "0x1b",
      "gasUsed": "0x6963",
      "effectiveGasPrice": "0x1e4b9d6",
      "blobGasPrice": "0x1",
      "from": "0xf39fd6e51aad88f6f4ce6ab8827279cfffb92266",
      "to": "0x5fbdb2315678afecb367f032d93f642f64180aa3",
      "contractAddress": null
    },
    {
      "status": "0x1",
      "cumulativeGasUsed": "0x6963",
      "logs": [
        {
          "address": "0x5fbdb2315678afecb367f032d93f642f64180aa3",
          "topics": [
            "0x8c5be1e5ebec7d5bd14f71427d1e84f3dd0314c0f7b2291e5b200ac8c7c3b925",
            "0x000000000000000000000000f39fd6e51aad88f6f4ce6ab8827279cfffb92266",
            "0x00000000000000000000000070997970c51812dc3a010c7d01b50e0d17dc79c8"
          ],
          "data": "0x0000000000000000000000000000000000000000000000000000000000000000",
          "blockHash": "0x4280f8df7455f341984bbf7e3edbbb9b76f44b73864d779c724b4a3153ea3b34",
          "blockNumber": "0x1c",
          "blockTimestamp": "0x69dec99e",
          "transactionHash": "0x77e2d787f146305e3b9cf8b6013cbe7450bb4a57018bf4821c7221641502eb69",
          "transactionIndex": "0x0",
          "logIndex": "0x0",
          "removed": false
        }
      ],
      "logsBloom": "0x00000000000000000002000000000000000000000000000000000000000000000000000000000000000000000000000000000000000000000000000000200000000000000000000000000000000000000000000000000000000000000000000000000840000000000000000100000000000000000000000000000000000000000000000000000000000000000000000000000000000000000000000200000000020000000000000000000000000000000000000000000000000000000000000000000040000000200000000000000000000000002000000000000000000000000010000000000000000000000000000001000000000000000000000000000000",
      "type": "0x2",
      "transactionHash": "0x77e2d787f146305e3b9cf8b6013cbe7450bb4a57018bf4821c7221641502eb69",
      "transactionIndex": "0x0",
      "blockHash": "0x4280f8df7455f341984bbf7e3edbbb9b76f44b73864d779c724b4a3153ea3b34",
      "blockNumber": "0x1c",
      "gasUsed": "0x6963",
      "effectiveGasPrice": "0x1a83e82",
      "blobGasPrice": "0x1",
      "from": "0xf39fd6e51aad88f6f4ce6ab8827279cfffb92266",
      "to": "0x5fbdb2315678afecb367f032d93f642f64180aa3",
      "contractAddress": null
    },
    {
      "status": "0x1",
      "cumulativeGasUsed": "0xa1f2",
      "logs": [
        {
          "address": "0x5fbdb2315678afecb367f032d93f642f64180aa3",
          "topics": [
            "0xf08a3b46f5df3430999903a65464921cb8ad37ea42c9fcced53d74978c180f51"
          ],
          "data": "0x000000000000000000000000000000000000000000000000000000027a7b2df0000000000000000000000000000000000000000000000000000000029a3489d5000000000000000000000000000000000000000000000000000000000000001d",
          "blockHash": "0xc61369e41d7e352ae55e9cd24aeabc1bed92800f6965205aeabcc3f80948438a",
          "blockNumber": "0x1d",
          "blockTimestamp": "0x69dec99e",
          "transactionHash": "0x531ebbdd2896e5755f9ab7c9b6c32f08db5b7852f1433a2911137c74774fcc0a",
          "transactionIndex": "0x0",
          "logIndex": "0x0",
          "removed": false
        }
      ],
      "logsBloom": "0x00000000000000000000000000000000000000000000000000000000000000000000000000000000000000000000000000000000000000000000000000000000000000000000000000000000000000000000000000000000000000000000000000000040000000000000000000000000000000000000000000000000000000000000000000000000000000000000000000000000000000000000000200000000000000000000000000000000000000000000000000000040000000000000000000000040000000000000000000001400000000000000000000000000000000000000000000000000000000000000000000000000000000000000000000000000",
      "type": "0x2",
      "transactionHash": "0x531ebbdd2896e5755f9ab7c9b6c32f08db5b7852f1433a2911137c74774fcc0a",
      "transactionIndex": "0x0",
      "blockHash": "0xc61369e41d7e352ae55e9cd24aeabc1bed92800f6965205aeabcc3f80948438a",
      "blockNumber": "0x1d",
      "gasUsed": "0xa1f2",
      "effectiveGasPrice": "0x1734f1d",
      "blobGasPrice": "0x1",
      "from": "0xf39fd6e51aad88f6f4ce6ab8827279cfffb92266",
      "to": "0x5fbdb2315678afecb367f032d93f642f64180aa3",
      "contractAddress": null
    },
    {
      "status": "0x1",
      "cumulativeGasUsed": "0xbe32",
      "logs": [
        {
          "address": "0x5fbdb2315678afecb367f032d93f642f64180aa3",
          "topics": [
            "0xddf252ad1be2c89b69c2b068fc378daa952ba7f163c4a11628f55a4df523b3ef",
            "0x000000000000000000000000f39fd6e51aad88f6f4ce6ab8827279cfffb92266",
            "0x0000000000000000000000000000000000000000000000000000000000000000"
          ],
          "data": "0x000000000000000000000000000000000000000000000000000000000883d3b6",
          "blockHash": "0x7253228bdafead8ee89c9320d6b4225e3832a6e29155d8614489c45c5a86e04e",
          "blockNumber": "0x1e",
          "blockTimestamp": "0x69dec99e",
          "transactionHash": "0xfa106a511bd05654cd2c76f8c5932694783439c63972b6d924bee4dece6f165f",
          "transactionIndex": "0x0",
          "logIndex": "0x0",
          "removed": false
        }
      ],
      "logsBloom": "0x00000000000000000000000000000000000000000000000000000000000000000000000000000000000000000000000000000000000000000000000000000000000000000000000000000008000000000000000000000000000000000000000000000040020000000000000100000800000000000000000000000010000000000000000000000000000000000000000000000000000000000000000200000000000000000000000000000000000000000000000000000000000000000000000000000042000000200000000000000000000000002000000000000000000020000000000000000000000000000000000000000000000000000000000000000000",
      "type": "0x2",
      "transactionHash": "0xfa106a511bd05654cd2c76f8c5932694783439c63972b6d924bee4dece6f165f",
      "transactionIndex": "0x0",
      "blockHash": "0x7253228bdafead8ee89c9320d6b4225e3832a6e29155d8614489c45c5a86e04e",
      "blockNumber": "0x1e",
      "gasUsed": "0xbe32",
      "effectiveGasPrice": "0x1450611",
      "blobGasPrice": "0x1",
      "from": "0xf39fd6e51aad88f6f4ce6ab8827279cfffb92266",
      "to": "0x5fbdb2315678afecb367f032d93f642f64180aa3",
      "contractAddress": null
    }
  ],
  "libraries": [],
  "pending": [],
  "returns": {},
  "timestamp": 1776208286715,
  "chain": 31337,
  "commit": null
}